:1000000045C0000058C0000056C0000054C00000A9
:1000100052C0000050C000004EC000004CC00000A4
:100020004AC0000048C0000046C0000044C00000B4
:1000300042C0000040C000003EC000003CC00000C4
:100040003AC0000038C0000036C0000034C00000D4
:1000500032C0000030C000002EC000002CC00000E4
:100060002AC0000028C0000026C0000024C00000F4
:1000700022C0000020C000001EC000001CC0000004
:100080001AC0000018C0000016C0000011241FBED6
:10009000CFEFD0E4DEBFCDBF11E0A0E0B1E0E0E5FE
:1000A000F3E000E00BBF02C007900D92A630B1074D
:1000B000D9F702D04BC1A4CFCF93DF9300D000D0AB
:1000C0001F92CDB7DEB760E472E48FE090E008D015
:1000D0008FEF84B981E0F4D03A838A8185B9FDCF6E
:1000E0009B01AC0180E28AB9DA01C90155231CF4F5
:1000F0000196A11DB11DB595A79597958795BC0152
:10010000CD01785F884F9F4FFFD0DA01C901019779
:10011000A109B109892F9A2FAB2FBB278093CD005E
:1001200021502093CC0086E08093CA00E9ECF0E0F7
:100130008081886180830895E8ECF0E080818823E5
:10014000ECF78091CE000895E8ECF0E0908195FF07
:10015000FDCF8093CE000895DF92EF92FF920F9330
:100160001F93CF93DF938C015D987B0181E0E81AA8
:10017000F1081E141F048CF4C0E0D0E0D12CDCDFA9
:10018000882371F0F801ED0DF11D8083D394CD2DFE
:10019000D0E0CE15DF059CF303C0C0E0D0E0D12C49
:1001A000F801ED0DF11D1082CE010196DF91CF9186
:1001B0001F910F91FF90EF90DF900895FF920F93A2
:1001C0001F93CF93DF93F62E5D9A662379F0C82FA5
:1001D000D92F10E000E004C0123010F08881080F21
:1001E0008991B2DF1F5F1F11F7CF01C000E0802FA0
:1001F0008095AADFE8ECF0E0808186FFFDCFDF91FB
:10020000CF911F910F91FF900895DF92EF92FF928F
:100210000F931F93CF93DF93CDB7DEB765970FB6DC
:10022000F894DEBF0FBECDBFD82ECB01EDB6FEB623
:10023000642FC4DF60E170E0CE0106968DDF86306A
:1002400010F089E985B93A8549854250642F70E0FC
:100250008DB79EB7861B970B0FB6F8949EBF0FBE47
:100260008DBF0DB71EB70F5F1F4F1616170654F43C
:10027000FE013B96D8016E0F7F1F91919D93E6176B
:10028000F707D9F7D9823A834B831D830C83502F0C
:100290006D812D2D70E080E090E00FB6F894FEBEE9
:1002A0000FBEEDBE65960FB6F894DEBF0FBECDBF94
:1002B000DF91CF911F910F91FF90EF90DF90089504
:1002C000CF93DF93CDB7DEB72A970FB6F894DEBF92
:1002D0000FBECDBF95E0E0E0F1E0DE0116960190A3
:1002E0000D929A95E1F745E0BE016A5F7F4F8DDF81
:1002F00070E080E090E02A960FB6F894DEBF0FBE63
:10030000CDBFDF91CF910895A1E21A2EAA1BBB1B8E
:10031000FD010DC0AA1FBB1FEE1FFF1FA217B307D1
:10032000E407F50720F0A21BB30BE40BF50B661FE7
:10033000771F881F991F1A9469F7609570958095AB
:1003400090959B01AC01BD01CF010895F894FFCFBA
:06035000FFFFFE020100A8
:00000001FF
