S0140000526F72656C73656D6F64756C2E7372656313
S113000045C0000058C0000056C0000054C00000A5
S113001052C0000050C000004EC000004CC00000A0
S11300204AC0000048C0000046C0000044C00000B0
S113003042C0000040C000003EC000003CC00000C0
S11300403AC0000038C0000036C0000034C00000D0
S113005032C0000030C000002EC000002CC00000E0
S11300602AC0000028C0000026C0000024C00000F0
S113007022C0000020C000001EC000001CC0000000
S11300801AC0000018C0000016C0000011241FBED2
S1130090CFEFD0E4DEBFCDBF11E0A0E0B1E0E8E7F0
S11300A0F1E000E00BBF02C007900D92A030B10751
S11300B0D9F702D05FC0A4CFCF93DF93CDB7DEB71B
S11300C064970FB6F894DEBF0FBECDBF17D0FE0104
S11300D0319684E1DF011D928A95E9F78FEF8983D8
S11300E08A8391E09B8322E02C839D8384B95D986D
S11300F05D9A65E0CE0101961BD0F9CF80E28AB902
S113010087E190E09093CD008093CC0086E08093CB
S1130110CA00E9ECF0E080818861808308955C9AEC
S1130120E8ECF0E0908195FFFDCF8093CE00089538
S1130130FF920F931F93CF93DF93F62E5C9A66235F
S113014079F0C82FD92F10E000E004C0123010F06D
S11301508881080F8991E3DF1F5F1F11F7CF01C06A
S113016000E0802F8095DBDFDF91CF911F910F910D
S10B0170FF900895F894FFCFFD
S9030000FC
