S0140000526F72656C73656D6F64756C2E7372656313
S113000045C0000053C0000051C000004FC00000B4
S11300104DC000004BC0000049C0000047C00000B4
S113002045C000009AC0000041C000003FC000006D
S11300303DC0000067C0000039C0000037C00000A8
S113004036C0000033C0000031C000002FC00000E3
S11300502DC000002BC0000029C0000027C00000F4
S113006025C0000023C0000021C000001FC0000004
S11300701DC000001BC00000B1C0000017C000007C
S113008015C0000013C0000011C0000011241FBEE1
S1130090CFEFD0E4DEBFCDBF21E0A0E0B1E001C0EE
S11300A01D92A630B207E1F783D0DCC1A9CF1F921D
S11300B00F920FB60F9211240BB60F922F933F930A
S11300C04F935F936F937F938F939F93AF93BF935C
S11300D0EF93FF93E0910001F09101010995FF91E5
S11300E0EF91BF91AF919F918F917F916F915F91AC
S11300F04F913F912F910F900BBE0F900FBE0F9019
S11301001F9018951F920F920FB60F9211240BB6E1
S11301100F922F933F934F935F936F937F938F939C
S11301209F93AF93BF93EF93FF93E0910401F091FA
S113013005010995FF91EF91BF91AF919F918F9127
S11301407F916F915F914F913F912F910F900BBED3
S11301500F900FBE0F901F9018951F920F920FB61D
S11301600F9211240BB60F922F933F934F935F93EB
S11301706F937F938F939F93AF93BF93EF93FF936B
S1130180E0910201F09103010995FF91EF91BF9174
S1130190AF919F918F917F916F915F914F913F911B
S11301A02F910F900BBE0F900FBE0F901F901895BC
S11301B0CF93DF9300D000D01F92CDB7DEB760E4B9
S11301C072E48FE090E015D078948FEF84B941E029
S11301D061E18CE000D18A8185B9FFCF1F920F9233
S11301E00FB60F9211245D980F900FBE0F901F90C1
S11301F018959B01AC0180E28AB9DA01C901552343
S11302001CF40196A11DB11DB595A79597958795E9
S1130210BC01CD01605C7D4B804F9F4F01D1DA0161
S1130220C9010197A109B109892F9A2FAB2FBB27C7
S11302308093CD0021502093CC0086E08093CA00A7
S1130240E9ECF0E08081886580830895E8ECF0E0D3
S113025080818823ECF7E8ECF0E0808185FFFDCF16
S11302608091CE0008955D9AE8ECF0E0908195FFCE
S1130270FDCF8093CE000895DF92EF92FF920F930B
S11302801F93CF93DF938C017B0181E0E81AF1087F
S11302901E141F048CF4C0E0D0E0D12CD7DF8823D7
S11302A071F0F801ED0DF11D8083D394CD2DD0E0D4
S11302B0CE15DF059CF303C0C0E0D0E0D12CF801DB
S11302C0ED0DF11D1082CE010196DF91CF911F91AA
S11302D00F91FF90EF90DF900895FF920F931F937B
S11302E0CF93DF93F62E662379F0C82FD92F10E031
S11302F000E004C0123010F08881080F8991B3DF48
S11303001F5F1F11F7CF01C000E0802F8095ABDF86
S1130310DF91CF911F910F91FF900895DF92EF929B
S1130320FF920F931F93CF93DF93CDB7DEB76597FB
S11303300FB6F894DEBF0FBECDBFD82ECB01EDB6FD
S1130340FEB6642FCADF5D99FECF60E170E0CE0196
S1130350069692DF863010F089E985B93A85498599
S11303604250642F70E08DB79EB7861B970B0FB673
S1130370F8949EBF0FBE8DBF0DB71EB70F5F1F4F02
S11303801616170654F4FE013B96D8016E0F7F1F14
S113039091919D93E617F707D9F7D9823A834B8356
S11303A01D830C83502F6D812D2D70E080E090E033
S11303B00FB6F894FEBE0FBEEDBE65960FB6F89468
S11303C0DEBF0FBECDBFDF91CF911F910F91FF9084
S11303D0EF90DF900895CF93DF93CDB7DEB72C97DE
S11303E00FB6F894DEBF0FBECDBF9FEF9E839F83F1
S11303F0888794E0998792E09A876B874C8747E0D7
S1130400BE016A5F7F4F8ADF70E080E090E02C9647
S11304100FB6F894DEBF0FBECDBFDF91CF91089524
S1130420A1E21A2EAA1BBB1BFD010DC0AA1FBB1FF4
S1130430EE1FFF1FA217B307E407F50720F0A21B66
S1130440B30BE40BF50B661F771F881F991F1A94D3
S113045069F760957095809590959B01AC01BD01FD
S10B0460CF010895F894FFCFC9
S9030000FC
