S013000053656E736F726D6F64756C2E7372656376
S113000045C0000060C000005EC000005CC000008D
S11300105AC0000058C0000056C0000054C0000080
S113002052C0000050C000004EC000004CC0000090
S11300304AC0000048C0000046C0000044C00000A0
S113004042C0000040C000003EC000003CC00000B0
S1130050E4C2000038C0000036C0000034C0000014
S113006032C0000030C000002EC000002CC00000D0
S11300702AC0000028C0000026C0000024C00000E0
S113008022C0000020C000001EC0000011241FBEBA
S1130090CFEFD0E4DEBFCDBF11E0A0E0B1E0E4E6F5
S11300A0F7E000E00BBF02C007900D92AC30B1073F
S11300B0D9F722E0ACE0B1E001C01D92AF31B20744
S11300C0E1F719D24DC39CCF2A9A8FE19EE40197A0
S11300D0F1F700C000002A988FE19EE40197F1F740
S11300E000C0000008950F931F93CF93DF932898C7
S11300F02998419840985F985E985D985C985B98C1
S11301005A9815B181FB002700F9102B15B915B1C8
S113011081709927880F991F812B85B98FE19EE4FF
S11301200197F1F700C0000088B167FB992790F9A7
S1130130C92F90E0D92FCC0FDD1FC82BC8B988B1C7
S113014066FB992790F9892B88B91BB1EB01D595EA
S1130150C795D595C795D595C795D595C795D59583
S1130160C795CE019695982F882797958795812BCB
S11301708BB98BB164FBAA27A0F9B0E00024B69533
S1130180A7950794B695A7950794BA2FA02DA82BE9
S1130190ABB98BB163FBEE27E0F9F0E0EE0FFF1F84
S11301A0E295F295F07FFE27E07FFE27E82BEBB97E
S11301B08BB162FB442740F950E042955295507F41
S11301C05427407F5427482B4BB98BB161FB22271E
S11301D020F930E0220F331F220F331F220F331F69
S11301E0282B2BB98BB161707727660F771F660FA9
S11301F0771F682B6BB98FE19EE40197F1F700C07C
S11302000000DF91CF911F910F91089561E070E09C
S113021080E090E068CF0895EF92FF920F931F93D0
S1130220CF93DF9300D000D000D0CDB7DEB786E007
S1130230E0E0F1E0DE01119601900D928A95E1F77C
S1130240CE0101967C0105E810E0B80180E090E061
S11302504ADF3ADFF70161917F0170E082E090E0CC
S113026042DF32DF0F5F1F4F0A38110571F7269600
S11302700FB6F894DEBF0FBECDBFDF91CF911F91B3
S11302800F91FF90EF900895209A219A229A399A1B
S1130290389A579A569A559A549A539A529A2A982F
S11302A02FEF89E698E1215080409040E1F700C0AB
S11302B0000060E370E080E090E015DF05DF60E3BC
S11302C070E080E090E00FDFFFDE60E370E080E04C
S11302D090E009DFF9DE68E370E080E090E003DF9E
S11302E0F3DE6FE070E080E090E0FDDEEDDE8EDFB7
S11302F0EBDE66E070E080E090E0F5DEE5DE8CCFDA
S11303000895CF93DF93EC016B567F4F80E090E02C
S1130310EADEDADEBE01605D7F4F82E090E0E3DE7C
S1130320D3DEDF91CF9108954F925F926F927F92C7
S11303308F929F92AF92BF92CF92DF92EF92FF92F1
S11303400F931F93CF93DF9300D000D01F92CDB7AC
S1130350DEB75C0185E0E6E0F1E0DE011196019094
S11303600D928A95E1F7C501B1D1BDD12C019C0153
S1130370369527953695279536952795A5ECB0E2C1
S1130380E0D16C01D694C794D694C794D694C794FC
S1130390D694C79492013695279536952795ABE761
S11303A0B4E1CFD1AC01569547959601220F331F86
S11303B0C601880F991F880F991F880F991F820FF4
S11303C0931F4A01881A990A9201ADECBCECB9D189
S11303D09695879596958795969587959A01220F78
S11303E0331F440F551F440F551F440F551F420F11
S11303F0531F3C01641A750A9C01220F331F880F96
S1130400991F880F991F880F991F820F931F481AED
S1130410590ACE0101967C0100E910E0B80180E0A0
S113042090E061DE51DEF70161917F0170E082E0CE
S113043090E059DE49DE0F5F1F4F0439110571F753
S113044064E970E080E090E04EDE3EDE60E270E061
S113045082E090E048DE38DE60E070E0C50151DF04
S113046066E970E080E090E03EDE2EDE6AE370E054
S113047082E090E038DE28DE67E970E080E090E01A
S113048032DE22DE60E270E082E090E02CDE1CDEF0
S113049063E070E0C60135DF64E070E0C40131DF81
S11304A065E070E0C3012DDF66E070E0C20129DF82
S11304B00F900F900F900F900F90DF91CF911F919D
S11304C00F91FF90EF90DF90CF90BF90AF909F90EF
S11304D08F907F906F905F904F9008954BD084E9F8
S11304E031D08FEF35D048D08FE891E00197F1F704
S11304F000C0000008958FE59AEE0197F1F700C05F
S1130500000007D0EBDFC0DEB1D084E090E00CDF68
S1130510FCCF8CB580618CBD8CB580648CBD8CB5F2
S11305208CBD8CB588608CBD8CB584608CBD8CB55D
S113053081608CBD8CB582608CBD259A2698249AE6
S1130540279A08958EBD0DB407FEFDCF8EB508958C
S11305501F93CF93DF93182FF5DFC82FD0E0812F9F
S1130560F1DFDC2FCC279E01282BC901DF91CF912D
S11305701F9108952C9808952C9A0895E0ECF0E0CA
S113058080818823ECF78091C6000895CF92DF9292
S1130590EF92FF920F931F93CF93DF938C017B0114
S11305A081E0E81AF1081E141F04CCF4C0E0D0E086
S11305B0D12CC12CE3DF8823A9F0833211F09D2DC7
S11305C001C09C2DDD24D394D90EF801E90FF11D4F
S11305D08083CD2DD0E0CE15DF0564F303C0C0E0E9
S11305E0D0E0D12CF801ED0DF11D1082CE01019661
S11305F0DF91CF911F910F91FF90EF90DF90CF90FB
S113060008958091C00088233CF46FEF70E08FE17F
S113061091E0BCDF80930C0108951F920F920FB6F6
S11306200F9211240BB60F922F933F934F935F9326
S11306306F937F938F939F93AF93BF93EF93FF93A6
S1130640F894DFDF7894FF91EF91BF91AF919F9180
S11306508F917F916F915F914F913F912F910F9067
S11306600BBE0F900FBE0F901F9018950C9A0B9A0B
S11306700A9A089A0998209A10920D0110920F0173
S113068010920E0184E080931001109212011092D6
S1130690110188E080931301109215011092140146
S11306A08CE080931601109218011092170180E1DA
S11306B08093190110921B0110921A0184E1809316
S11306C01C0110921E0110921D01089590E0FC017E
S11306D0EE0FFF1F8E0F9F1FFC01E35FFE4F608133
S11306E071818281089582B1837E82B982B1682B3F
S11306F062B9109A80EF8A95F1F71098019BFECFAA
S1130700019B0BC020E030E092E09A95F1F700C025
S11307102F5F3F4F0199F8CF02C020E030E08FE314
S11307209CE90197F1F700C00000ADECBCEC09D0E6
S113073096958795929582958F7089279F708927C2
S11307400895A29FB001B39FC001A39F700D811DA6
S11307501124911DB29F700D811D1124911D0895C6
S1070760F894FFCF37
S10F0764424F53534500444953540000D5
S9030000FC
