S013000053656E736F726D6F64756C2E7372656376
S113000045C0000061C000005FC000005DC000008A
S11300105BC0000059C0000057C0000055C000007C
S113002053C0000051C000004FC000004DC000008C
S11300304BC0000049C0000047C0000045C000009C
S113004043C0000041C000003FC000003DC00000AC
S113005000C4000039C0000037C0000035C00000F3
S113006033C0000031C000002FC000002DC00000CC
S11300702BC0000029C0000027C0000025C00000DC
S113008023C0000021C000001FC0000011241FBEB7
S1130090CFEFD0E4DEBFCDBF11E0A0E0B1E0E0ECF3
S11300A0F5E100E00BBF02C007900D92A033B10749
S11300B0D9F722E0A0E3B1E001C01D92A334B20756
S11300C0E1F7FDD20C94DE0A9BCF2A9A8FE19EE4DD
S11300D00197F1F700C000002A988FE19EE4019790
S11300E0F1F700C0000008950F931F93CF93DF939F
S11300F028982998419840985F985E985D985C98F4
S11301005B985A9815B181FB002700F9102B15B99B
S113011015B181709927880F991F812B85B98FE1BB
S11301209EE40197F1F700C0000088B167FB9927AE
S113013090F9C92F90E0D92FCC0FDD1FC82BC8B977
S113014088B166FB992790F9892B88B91BB1EB011B
S1130150D595C795D595C795D595C795D595C79583
S1130160D595C795CE019695982F8827979587950D
S1130170812B8BB98BB164FBAA27A0F9B0E00024D2
S1130180B695A7950794B695A7950794BA2FA02D71
S1130190A82BABB98BB163FBEE27E0F9F0E0EE0FCF
S11301A0FF1FE295F295F07FFE27E07FFE27E82B04
S11301B0EBB98BB162FB442740F950E0429552956C
S11301C0507F5427407F5427482B4BB98BB161FB98
S11301D0222720F930E0220F331F220F331F220F72
S11301E0331F282B2BB98BB161707727660F771FCC
S11301F0660F771F682B6BB98FE19EE40197F1F7C7
S113020000C00000DF91CF911F910F91089561E02C
S113021070E080E090E068DF58CF0895209A219A3A
S1130220229A399A389A579A569A559A549A539ABE
S1130230529A2A982FEF89E698E121508040904005
S1130240E1F700C0000060E370E080E090E04CDF84
S11302503CDF60E370E080E090E046DF36DF60E39F
S113026070E080E090E040DF30DF68E370E080E041
S113027090E03ADF2ADF6FE070E080E090E034DF66
S113028024DFC5DF66E070E080E090E02DDF1DCF65
S11302900895CF93DF9372D284E958D28FEF5CD262
S11302A0EC016ED2DD230CF4F4DF8FE891E00197CA
S11302B0F1F700C00000DF91CF910895CF93DF9351
S11302C05DD280E943D28FEF47D2EC0159D2DD23CE
S11302D00CF4F4DFDF91CF910895CF93DF934ED2E6
S11302E084E934D28FEF38D2EC014AD2DD230CF406
S11302F0F4DFDF91CF910895CF93DF933FD280E86D
S113030025D28FE891E00197F1F700C000008FEF4C
S113031023D2EC0135D2CE01969587959770DF9163
S1130320CF91089549E1489F9001499F300D1124D0
S1130330ABEABAEAFBD496958795969587959695F8
S11303408795BC0164537840882777FD8095982F62
S11303504ED424EA30E745ED50E4AED315D4CB01B6
S11303600895EF92FF920F931F93CF93DF93EC01C5
S113037090DF8E01DD2314F40F5F1F4F1595079551
S11303801C161D0624F510161106C4F4C0E0D0E0B6
S11303900F2EF4E6EF2EF12CF02D9FDFADDFC2DF40
S11303A0B701B1D4C60FD71F8FE19EE40197F1F7CF
S11303B000C00000C017D10784F302C0C0E0D0E041
S11303C081E090E0909331018093300127C0DD23D8
S11303D01CF51123C4F4C0E0D0E00F2EF4E6EF2E98
S11303E0F12CF02D7ADF88DF9DDFB7018CD4C60FA6
S11303F0D71F8FE19EE40197F1F700C000000C17AE
S11304001D0784F302C0C0E0D0E081E090E0909347
S113041031018093300102C0C0E0D0E04FDFCE0153
S1130420880F991FDF91CF911F910F91FF90EF904B
S11304300895CF93DF93EC016AE071E0DED5892B58
S113044079F061E171E0CE01D8D5892B61F06AE1E0
S113045071E0CE01D2D5892B49F483E090E008C045
S113046081E090E005C082E090E002C080E090E08E
S1130470DF91CF910895CF93DF93EC01659661E20C
S113048071E0CE01BAD5009759F067E271E0CE0170
S1130490B4D531E020E0892B09F030E0832F922F8E
S11304A0DF91CF910895AF92BF92CF92DF92EF92F6
S11304B0FF920F931F93CF93DF93CDB7DEB72C97A3
S11304C00FB6F894DEBF0FBECDBF8C01B2DF823011
S11304D09105A1F18330910509F4CFC0019709F08A
S11304E0D7C082E090E045D49A83898341E068E0F4
S11304F071E08AE191E055D2C801459661D531DFBA
S11305009F938F938CE291E09F938F931F9282E04D
S11305108F938A818F9389818F9380D541E0BE0127
S11305206F5F7F4F8AE091E03CD289819A81B9D490
S11305300FB6F894DEBF0FBECDBFB0C0C80145965C
S11305403FD58C0181114BC041E068E071E08AE144
S113055091E027D28E010F5F1F4FB12C0F2EFCE2CA
S1130560CF2EF1E0DF2EF02D6894AA24A2F884E0C7
S113057090E0FFD37801F801819391938F018B2D43
S113058062D2FC0181811F928F93DF92CF921F92DE
S1130590AF92F70181818F9380818F933FD5B3947C
S11305A00FB6F894DEBF0FBECDBF96E0B912DFCF11
S11305B046E0BE016F5F7F4F81E191E0F2D17E01A1
S11305C0EDE0EE0EF11C8E010F5F1F4FF8018191DB
S11305D091918F0166D40E151F05C1F75FC08FEF8F
S11305E0800F863008F042C041E068E071E08AE1A3
S11305F091E0D7D182E090E0BCD3F82EE92E898334
S11306009A8384E090E0B5D39C838B8311271F9356
S11306100F930CE211E01F930F931F9282E08F93CC
S1130620EF92FF92FBD481E00ED2FC0181811F92F4
S11306308F931F930F931F9284E08F938C818F93DA
S11306408B818F93EBD442E0BE016F5F7F4F81E1DA
S113065091E0A7D189819A8124D48B819C8121D472
S11306600FB6F894DEBF0FBECDBF18C041E066E000
S113067071E08AE191E095D111C0C801FCDE0297D6
S113068068F041E066E071E08AE191E08AD106C059
S113069041E066E071E08AE191E083D12C960FB6E7
S11306A0F894DEBF0FBECDBFDF91CF911F910F91A4
S11306B0FF90EF90DF90CF90BF90AF900895CF93CD
S11306C0DF93CDB7DEB7C35DD1090FB6F894DEBFB3
S11306D00FBECDBF94D1A2DD20D052D083E390E0F1
S11306E051D0789400E010E0E12CF12C02C00E2DE2
S11306F01F2D802FA8D1ADD1E1D0882341F0CE01A8
S11307000196F9D0F894CE010196CDDE78940530A7
S1130710110569F30F5F1F4FECCF8CB580618CBD61
S11307208CB580648CBD8CB58CBD8CB588608CBD5B
S11307308CB584608CBD8CB581608CBD8CB58260B9
S11307408CBD259A2698249A279A08958EBD0DB4B7
S113075007FEFDCF8EB508951F93CF93DF93182F17
S1130760F5DFC82FD0E0812FF1DFDC2FCC279E01ED
S1130770282BC901DF91CF911F9108952C980895DA
S11307802C9A08959093C5008093C400E1ECF0E0A6
S1130790808180618083808188608083808180689B
S11307A0808386E08093C2000895E0ECF0E08081CD
S11307B08823ECF78091C6000895E0ECF0E0908186
S11307C095FFFDCF8093C6000895DF92EF92FF92CC
S11307D00F931F93CF93DF93EC01F12C8B01015006
S11307E011090F2EF3E2DF2EF02DEE24E3940CC05A
S11307F0DCDF8332B9F091E09F0DFE01EF0DF11DB6
S113080080838B3339F0F92E2F2D30E020173107F8
S11308107CF301C0F92E8F2D90E0C80FD91F1882E8
S1130820019603C0D8829E2DEECFDF91CF911F9108
S11308300F91FF90EF90DF9008958091C00088237E
S11308403CF460E071E08FE391E0BFDF809332011C
S113085008951F920F920FB60F9211240BB60F92A8
S11308602F933F934F935F936F937F938F939F93B4
S1130870AF93BF93EF93FF93E0DFFF91EF91BF91AD
S1130880AF919F918F917F916F915F914F913F9124
S11308902F910F900BBE0F900FBE0F901F901895C5
S11308A0CF93DF93EC018881882329F0219685DF9B
S11308B089918111FCCFDF91CF910895809132010C
S11308C00895CF93641775075CF4FC01E60FF71FD6
S11308D0D901840F951FC191CD93E817F907D9F772
S11308E0FA01E61BF70BE20FF31F1082461BF90116
S11308F0448BCF910895BF92CF92DF92EF92FF92F3
S11309000F931F93CF93DF937C01F894FC01EE5275
S1130910FF4F1082809132018823C1F190913F01F1
S11309209332A1F590E0029774F100E411E061E0E4
S113093070E0C1E0D0E06F010F2EF5E1BF2EF02D85
S1130940F80181918F018A53823090F4F6018081FD
S113095091E0980F90839701B89E200D311D1124CA
S1130960AE018FE391E0ADDFB8016F53714004C075
S1130970329780818B3339F021962091320130E017
S1130980C217D307ECF21092320178947894DF9175
S1130990CF911F910F91FF90EF90DF90CF90BF9078
S11309A00895CF92DF92EF92FF920F931F93CF930C
S11309B0DF93EC01C62ED72EE42E83E2FEDECE01B9
S11309C06FDFF12C1E141F047CF40C2D1D2DC0E0D0
S11309D0D0E08AE3F2DEF801819191918F0160DF2A
S11309E02196CE15DF05ACF38BE3E7DEDF91CF91E3
S11309F01F910F91FF90EF90DF90CF9008950C9A84
S1130A000B9A0A9A089A0998209A1092390110921E
S1130A103A0184E0809337011092380188E0809392
S1130A203501109236018CE0809333011092340129
S1130A3080E180933B0110923C0184E180933D016D
S1130A4010923E01089590E0880F991F8D5C9E4F8F
S1130A500895FC0182B1837E82B992B18081892B91
S1130A6082B9109A88E28A95F1F71098019BFECF1B
S1130A70019B0FC020E030E092E09A95F1F700C0AE
S1130A802F5F3F4F019B07C0203A8CE83807A1F73E
S1130A9002C020E030E08FE295E70197F1F700C053
S1130AA00000AFE9B6E442D196958795969587956F
S1130AB096958795818308950CD0EBC0E3D040F0E0
S1130AC0DAD030F021F45F3F19F0CCC0511115C1D8
S1130AD0CFC0F0D098F39923C9F35523B1F3951BF4
S1130AE0550BBB27AA2762177307840738F09F5F4B
S1130AF05F4F220F331F441FAA1FA9F333D00E2EBA
S1130B003AF0E0E830D091505040E695001CCAF726
S1130B1029D0FE2F27D0660F771F881FBB1F2617EB
S1130B2037074807AB07B0E809F0BB0B802DBF01BE
S1130B30FF2793585F4F2AF09E3F510568F092C0FB
S1130B40DCC05F3FECF3983EDCF3869577956795C0
S1130B50B795F7959F5FC9F7880F911D969587956F
S1130B6097F90895E1E0660F771F881FBB1F62178E
S1130B7073078407BA0720F0621B730B840BBA0B4C
S1130B80EE1F88F7E095089504D06894B111B5C0BC
S1130B90089598D088F09F5790F0B92F9927B751AE
S1130BA0A0F0D1F0660F771F881F991F1AF0BA952D
S1130BB0C9F712C0B13081F09FD0B1E008959CC054
S1130BC0672F782F8827B85F39F0B93FCCF3869523
S1130BD077956795B395D9F73EF490958095709580
S1130BE061957F4F8F4F9F4F0895E89409C097FBFD
S1130BF03EF490958095709561957F4F8F4F9F4FF0
S1130C009923A9F0F92F96E9BB279395F695879533
S1130C1077956795B795F111F8CFFAF4BB0F11F4F6
S1130C2060FF1BC06F5F7F4F8F4F9F4F16C088239D
S1130C3011F096E911C0772321F09EE8872F762FD3
S1130C4005C0662371F096E8862F70E060E02AF014
S1130C509A95660F771F881FDAF7880F9695879500
S1130C6097F9089597F99F6780E870E060E0089528
S1130C709FEF80EC089500240A94161617061806B0
S1130C800906089500240A9412161306140605068C
S1130C900895092E0394000C11F4882352F0BB0F1D
S1130CA040F4BF2B11F460FF04C06F5F7F4F8F4F80
S1130CB09F4F089557FD9058440F551F59F05F3FBB
S1130CC071F04795880F97FB991F61F09F3F79F06A
S1130CD087950895121613061406551FF2CF4695EC
S1130CE0F1DF08C0161617061806991FF1CF86956E
S1130CF07105610508940895E894BB276627772752
S1130D00CB0197F9089597FB072E16F4009406D0AB
S1130D1077FD08D01AD007FC05D03EF49095819554
S1130D209F4F0895709561957F4F0895A29FB001DC
S1130D30B39FC001A39F700D811D1124911DB29F0B
S1130D40700D811D1124911D0895AA1BBB1B51E137
S1130D5007C0AA1FBB1FA617B70710F0A61BB70B27
S1130D60881F991F5A95A9F780959095BC01CD01CC
S1130D700895CF93DF938230910510F482E090E0E0
S1130D80E0914102F091420220E030E0A0E0B0E0C6
S1130D90309739F14081518148175907B8F0481705
S1130DA0590771F482819381109729F013969C93CB
S1130DB08E9312972CC0909342028093410227C0D5
S1130DC02115310531F04217530718F0A901DB0151
S1130DD001C0EF019A01BD01DF010280F381E02D22
S1130DE0D7CF21153105F9F0281B390B24303105F3
S1130DF080F48A819B816115710521F0FB01938345
S1130E00828304C09093420280934102FE01329691
S1130E1044C0FE01E20FF31F8193919322503109E4
S1130E20398328833AC020913F0230914002232B1A
S1130E3041F4209102013091030130934002209348
S1130E403F0220910001309101012115310541F447
S1130E502DB73EB74091040150910501241B350B79
S1130E60E0913F02F0914002E217F307A0F42E1B39
S1130E703F0B2817390778F0AC014E5F5F4F2417FA
S1130E80350748F04E0F5F1F5093400240933F02D6
S1130E908193919302C0E0E0F0E0CF01DF91CF9124
S1130EA00895CF93DF93009709F487C0FC0132972C
S1130EB013821282C0914102D0914202209781F4A0
S1130EC020813181280F391F80913F029091400287
S1130ED08217930779F5F0934002E0933F026DC0C7
S1130EE0DE0120E030E0AE17BF0750F412964D91BA
S1130EF05C9113979D014115510509F1DA01F3CF76
S1130F00B383A28340815181840F951F8A179B0765
S1130F1071F48D919C911197840F951F0296918382
S1130F20808312968D919C911397938382832115CC
S1130F30310529F4F0934202E09341023EC0D90105
S1130F401396FC93EE9312974D915D91A40FB51FE8
S1130F50EA17FB0779F480819181840F951F02962B
S1130F60D90111969C938E938281938113969C93BD
S1130F708E931297E0E0F0E08A819B81009719F04C
S1130F80FE01EC01F9CFCE01029628813981820F4E
S1130F90931F20913F02309140022817390769F4CA
S1130FA0309729F4109242021092410202C0138237
S1130FB01282D0934002C0933F02DF91CF910895F3
S1130FC0FC0188279927E89421912032E9F32930FC
S1130FD010F02E30C8F32B3239F02D3231F46894EE
S1130FE003C014D0820F911D219120532A30C8F3DD
S1130FF01EF4909581959F4F0895FB01DC018D911E
S1131000019080190110D9F3990B08957AE0979F04
S1131010902D879F802D910D112408950F931F9378
S1131020CF93DF93CDB7DEB72E970FB6F894DEBF1C
S11310300FBECDBF0D891E898F89988D26E02C8324
S11310401A83098397FF02C080E090E801979E838A
S11310508D83AE01455E5F4F698D7A8DCE01019619
S113106019D04D815E8157FD0AC02F813885421702
S113107053070CF49A01F801E20FF31F10822E9625
S11310800FB6F894DEBF0FBECDBFDF91CF911F9195
S11310900F9108952F923F924F925F926F927F9299
S11310A08F929F92AF92BF92CF92DF92EF92FF9274
S11310B00F931F93CF93DF93CDB7DEB72C970FB663
S11310C0F894DEBF0FBECDBF7C016B018A01FC0129
S11310D017821682838181FFB0C1CE0101964C0133
S11310E0F7019381F60193FD859193FF81916F013F
S11310F0882309F49EC1853239F493FD859193FFC9
S113110081916F01853221F4B70190E0C7D1E8CF16
S1131110512C312C20E02032A0F48B3269F030F4D1
S1131120803259F0833269F420612CC08D3239F059
S1131130803339F4216026C02260246023C02860F3
S113114021C027FD27C030ED380F3A3078F426FF50
S113115006C0FAE05F9E300D1124532E13C08AE0BE
S1131160389E300D1124332E20620CC08E3221F4AF
S113117026FD5FC1206406C08C3611F4206802C0CD
S1131180883641F4F60193FD859193FF81916F01B7
S11311908111C1CF982F9F7D9554933028F40C5F13
S11311A01F4FFFE3F9830DC0833631F0833771F0AD
S11311B0833509F057C021C0F801808189830E5F0F
S11311C01F4F44244394512C540114C03801F2E0BD
S11311D06F0E711CF801A080B18026FF03C0652D3D
S11311E070E002C06FEF7FEFC5012C874CD12C015A
S11311F083012C852F77222E16C03801F2E06F0E62
S1131200711CF801A080B18026FF03C0652D70E039
S113121002C06FEF7FEFC5012C872AD12C012C85EA
S11312202068222E830123FC19C0832D90E04816E8
S11312305906A0F4B70180E290E030D13A94F5CF9A
S1131240F50127FC859127FE81915F01B70190E0AC
S113125025D131103A94F1E04F1A51084114510448
S113126079F7DEC0843611F0893631F5F80127FFAD
S113127007C060817181828193810C5F1F4F08C018
S113128060817181882777FD8095982F0E5F1F4FAD
S11312902F76B22E97FF09C0909580957095619531
S11312A07F4F8F4F9F4F2068B22E2AE030E0A40179
S11312B027D1A82EA81843C0853729F42F7EB22E33
S11312C02AE030E025C0F22FF97FBF2E8F36C1F01F
S11312D018F4883579F0ADC0803719F0883721F0DB
S11312E0A8C02F2F2061B22EB4FE0DC08B2D8460B8
S11312F0B82E09C024FF0AC09F2F9660B92E06C0DD
S113130028E030E005C020E130E002C020E132E016
S1131310F801B7FE07C060817181828193810C5FFF
S11313201F4F06C06081718180E090E00E5F1F4F07
S1131330A401E6D0A82EA818FB2DFF77BF2EB6FE79
S11313400BC02B2D2E7FA51450F4B4FE0AC0B2FCA2
S113135008C02B2D2E7E05C07A2C2B2D03C07A2C91
S113136001C0752C24FF0DC0FE01EA0DF11D808122
S1131370803311F4297E09C022FF06C0739473944C
S113138004C0822F867809F0739423FD12C020FFD5
S113139006C05A2C731418F4530C5718732C731476
S11313A060F4B70180E290E02C8778D073942C85A8
S11313B0F6CF731410F4371801C0312C24FF11C078
S11313C0B70180E390E02C8769D02C8522FF16C0FA
S11313D021FF03C088E590E002C088E790E0B701F0
S11313E00CC0822F867851F021FD02C080E201C03A
S11313F08BE227FD8DE2B70190E050D0A51430F4C4
S1131400B70180E390E04AD05A94F8CFAA94F4014B
S1131410EA0DF11D8081B70190E040D0A110F6CF14
S1131420332009F45DCEB70180E290E037D03A94DE
S1131430F7CFF7018681978102C08FEF9FEF2C963B
S11314400FB6F894DEBF0FBECDBFDF91CF911F91D1
S11314500F91FF90EF90DF90CF90BF90AF909F904F
S11314608F907F906F905F904F903F902F90089552
S1131470FC010590615070400110D8F7809590955B
S11314808E0F9F1F0895FC01615070400190011060
S1131490D8F7809590958E0F9F1F08950F931F93F3
S11314A0CF93DF93182F092FEB018B8181FD03C0AC
S11314B08FEF9FEF20C082FF10C04E815F812C818F
S11314C03D81421753077CF4E881F9819F012F5F26
S11314D03F4F39832883108306C0E885F985812F1F
S11314E00995892B29F72E813F812F5F3F4F3F8339
S11314F02E83812F902FDF91CF911F910F9108950B
S1131500FA01AA27283051F1203181F1E8946F9330
S11315106E7F6E5F7F4F8F4F9F4FAF4FB1E03ED0D6
S1131520B4E03CD0670F781F891F9A1FA11D680F74
S1131530791F8A1F911DA11D6A0F711D811D911DA7
S1131540A11D20D009F468943F912AE0269F11241C
S11315503019305D3193DEF6CF010895462F477080
S1131560405D4193B3E00FD0C9F7F6CF462F4F70DB
S1131570405D4A3318F0495D31FD4052419302D039
S1131580A9F7EACFB4E0A6959795879577956795DF
S1131590BA95C9F700976105710508959B01AC01DF
S11315A00A2E06945795479537952795BA95C9F706
S11315B0620F731F841F951FA01D0895F894FFCF19
S11315C000004302200021012701726F74617465D9
S11315D00064697374616E6365006163636570744C
S11315E00066616C73650074727565002575000092
S9030000FC
