S013000053656E736F726D6F64756C2E7372656376
S113000045C0000053C0000051C000004FC00000B4
S11300104DC000004BC0000049C0000047C00000B4
S113002045C0000043C0000041C000003FC00000C4
S11300303DC0000078C0000039C0000037C0000097
S113004035C0000033C0000031C000002FC00000E4
S11300502DC000002BC0000029C0000027C00000F4
S113006025C0000023C0000021C000001FC0000004
S11300701DC000001BC0000019C0000017C0000014
S113008015C0000013C0000011C0000011241FBEE1
S1130090CFEFD0E4DEBFCDBF21E0A0E0B1E001C0EE
S11300A01D92A230B207E1F702D068C0A9CF1CD0DC
S11300B084E933D08FEF31D08FEF2FD084E92DD066
S11300C08FEF2BD08FEF29D080E827D08FEF25D06A
S11300D08FEF23D02FEF8FE796E12150804090409F
S11300E0E1F700C00000FFCF8CB580618CBD8CB5FA
S11300F080648CBD8CB58CBD8CB588608CBD8CB592
S113010084608CBD8CB581608CBD8CB582608CBDE7
S1130110259A2698249A279A08958EBD0DB407FE31
S1130120FDCF8EB508951F920F920FB60F92112432
S11301300BB60F922F933F934F935F936F937F93DD
S11301408F939F93AF93BF93EF93FF93E09100013D
S1130150F09101010995FF91EF91BF91AF919F91AA
S11301608F917F916F915F914F913F912F910F905C
S11301700BBE0F900FBE0F901F901895F894FFCFF1
S9030000FC
