S013000053656E736F726D6F64756C2E7372656376
S113000045C0000060C000005EC000005CC000008D
S11300105AC0000058C0000056C0000054C0000080
S113002052C0000050C000004EC000004CC0000090
S11300304AC0000048C0000046C0000044C00000A0
S113004042C0000040C000003EC000003CC00000B0
S113005016C1000038C0000036C0000034C00000E3
S113006032C0000030C000002EC000002CC00000D0
S11300702AC0000028C0000026C0000024C00000E0
S113008022C0000020C000001EC0000011241FBEBA
S1130090CFEFD0E4DEBFCDBF11E0A0E0B1E0E4EDEE
S11300A0F2E000E00BBF02C007900D92A230B1074E
S11300B0D9F722E0A2E0B1E001C01D92A330B2075B
S11300C0E1F783D005C19CCFCF93DF9300D0CDB7A8
S11300D0DEB71A82198229813A81281739075CF41C
S11300E029813A812F5F3F4F3A83298329813A81BD
S11300F028173907ACF30F900F90DF91CF91089533
S113010028982998419840985F985E985D985C98E3
S11301105B985B9A8091000190910101D5DF8091F9
S1130120000190910101D0CF0895209A219A229A3A
S1130130399A389A579A569A559A549A539A529A7F
S11301408091000190910101BFDF2898299841987E
S113015040985F9A5E9A5D9A5C985B985A988091F1
S1130160000190910101B0DF8091000190910101A3
S1130170ABDF28982998419840985F985E985D9ADB
S11301805C9A5B9A5A9A80910001909101019CDFDC
S1130190809100019091010197DFB2DF289829989E
S11301A0419840985F985E985D985C9A5B9A5A9AD9
S11301B0809100019091010187DF8091000190916D
S11301C0010188519C4F80CF08952FE788E391E087
S11301D0215080409040E1F700C00000A6DFFFCF2F
S11301E0E0ECF0E080818823ECF78091C60008956C
S11301F0CF92DF92EF92FF920F931F93CF93DF93EF
S11302008C017B0181E0E81AF1081E141F04CCF470
S1130210C0E0D0E0D12CC12CE3DF8823A9F08332E5
S113022011F09D2D01C09C2DDD24D394D90EF8012D
S1130230E90FF11D8083CD2DD0E0CE15DF0564F3E9
S113024003C0C0E0D0E0D12CF801ED0DF11D108207
S1130250CE010196DF91CF911F910F91FF90EF9006
S1130260DF90CF9008958091C00088233CF46FEF15
S113027070E083E091E0BCDF8093020108951F9257
S11302800F920FB60F9211240BB60F922F933F9338
S11302904F935F936F937F938F939F93AF93BF938A
S11302A0EF93FF93F894DFDF7894FF91EF91BF9180
S11302B0AF919F918F917F916F915F914F913F91FA
S11302C02F910F900BBE0F900FBE0F901F9018959B
S10702D0F894FFCFCC
S10502D4140010
S9030000FC
