:1000000045C0000053C0000051C000004FC00000B8
:100010004DC000004BC0000049C0000047C00000B8
:1000200045C0000043C0000041C000003FC00000C8
:100030003DC0000023C1000039C0000037C00000EF
:1000400035C0000033C0000031C000002FC00000E8
:100050008FC100002BC0000029C0000027C0000095
:1000600025C0000023C0000021C000001FC0000008
:100070001DC000001BC0000019C0000017C0000018
:1000800015C0000013C0000011C0000011241FBEE5
:10009000CFEFD0E4DEBFCDBF22E0A0E0B1E001C0F1
:1000A0001D92A530B207E1F797D0C1C2A9CFE2D027
:1000B00084E9C8D08FEFCCD0DFD08FE891E00197F2
:1000C000F1F700C000000895D5D084E9BBD08FEFD0
:1000D000BFD0D2C00895CF93DF93CCD080E8B2D008
:1000E0008FE891E00197F1F700C000008FEFB0D0EA
:1000F000EC01C2D0CE01969587959770DF91CF9194
:10010000089549E1489F9001499F300D1124ABEAC1
:10011000BAEA7ED296958795969587959695879516
:10012000BC0164537840882777FD8095982FE4D1EF
:1001300024EA30E745ED50E444D1ABD1CB0108953A
:100140000F931F93CF93DF938C019923ECF0181634
:1001500019069CF4C0E0D0E0B7DFBDDFD2DFC80FE6
:10016000D91F2FEF89E698E1215080409040E1F7B8
:1001700000C00000C017D1077CF381E090E09093AD
:1001800001018093000119C0C0E0D0E09DDFA3DF32
:10019000B8DFC80FD91F2FEF89E698E121508040C2
:1001A0009040E1F700C000000C171D077CF381E0D0
:1001B00090E09093010180930001DF91CF911F9116
:1001C0000F9108959093010180930001089580910B
:1001D0000001909101010895209A28981AD067DFB4
:1001E000CAE5D0E0D195C195D109CE01A9DFEFDFF5
:1001F000892BE9F3289A80E090E0E4DF2FEF81E19A
:100200009AE7215080409040E1F700C00000289814
:10021000E9CF8CB580618CBD8CB580648CBD8CB50C
:100220008CBD8CB588608CBD8CB584608CBD8CB564
:1002300081608CBD8CB582608CBD259A2698249AED
:10024000279A08958EBD0DB407FEFDCF8EB5089593
:100250001F93CF93DF93182FF5DFC82FD0E0812FA6
:10026000F1DFDC2FCC279E01282BC901DF91CF9134
:100270001F9108952C9808952C9A08951F920F921B
:100280000FB60F9211240BB60F922F933F934F93FB
:100290005F936F937F938F939F93AF93BF93EF93EE
:1002A000FF93E0910301F09104010995FF91EF9113
:1002B000BF91AF919F918F917F916F915F914F917E
:1002C0003F912F910F900BBE0F900FBE0F901F907C
:1002D0001895E0ECF0E080818823ECF78091C6006F
:1002E0000895CF92DF92EF92FF920F931F93CF93D7
:1002F000DF938C017B0181E0E81AF1081E141F04D2
:10030000CCF4C0E0D0E0D12CC12CE3DF8823A9F0ED
:10031000833211F09D2D01C09C2DDD24D394D90E84
:10032000F801E90FF11D8083CD2DD0E0CE15DF055A
:1003300064F303C0C0E0D0E0D12CF801ED0DF11D55
:100340001082CE010196DF91CF911F910F91FF9006
:10035000EF90DF90CF9008958091C00088233CF407
:100360006FEF70E085E091E0BCDF809302010895BB
:100370001F920F920FB60F9211240BB60F922F936C
:100380003F934F935F936F937F938F939F93AF931D
:10039000BF93EF93FF93F894DFDF7894FF91EF9191
:1003A000BF91AF919F918F917F916F915F914F918D
:1003B0003F912F910F900BBE0F900FBE0F901F908B
:1003C00018950CD0EBC0E3D040F0DAD030F021F437
:1003D0005F3F19F0CCC0511115C1CFC0F0D098F3D8
:1003E0009923C9F35523B1F3951B550BBB27AA27B6
:1003F00062177307840738F09F5F5F4F220F331F28
:10040000441FAA1FA9F333D00E2E3AF0E0E830D0F3
:1004100091505040E695001CCAF729D0FE2F27D0F6
:10042000660F771F881FBB1F261737074807AB07C4
:10043000B0E809F0BB0B802DBF01FF2793585F4F39
:100440002AF09E3F510568F092C0DCC05F3FECF39C
:10045000983EDCF3869577956795B795F7959F5FFE
:10046000C9F7880F911D9695879597F90895E1E052
:10047000660F771F881FBB1F621773078407BA07B1
:1004800020F0621B730B840BBA0BEE1F88F7E0950C
:10049000089504D06894B111B5C0089598D088F03B
:1004A0009F5790F0B92F9927B751A0F0D1F0660F60
:1004B000771F881F991F1AF0BA95C9F712C0B1307B
:1004C00081F09FD0B1E008959CC0672F782F8827D6
:1004D000B85F39F0B93FCCF3869577956795B395BA
:1004E000D9F73EF490958095709561957F4F8F4F29
:1004F0009F4F0895E89409C097FB3EF4909580952E
:10050000709561957F4F8F4F9F4F9923A9F0F92FD9
:1005100096E9BB279395F695879577956795B79557
:10052000F111F8CFFAF4BB0F11F460FF1BC06F5F3D
:100530007F4F8F4F9F4F16C0882311F096E911C04F
:10054000772321F09EE8872F762F05C0662371F070
:1005500096E8862F70E060E02AF09A95660F771F84
:10056000881FDAF7880F9695879597F9089597F978
:100570009F6780E870E060E008959FEF80EC089549
:1005800000240A9416161706180609060895002472
:100590000A9412161306140605060895092E0394EC
:1005A000000C11F4882352F0BB0F40F4BF2B11F460
:1005B00060FF04C06F5F7F4F8F4F9F4F089557FDBF
:1005C0009058440F551F59F05F3F71F04795880FC1
:1005D00097FB991F61F09F3F79F087950895121658
:1005E00013061406551FF2CF4695F1DF08C0161604
:1005F00017061806991FF1CF8695710561050894B5
:100600000895E894BB2766277727CB0197F90895CB
:10061000A29FB001B39FC001A39F700D811D112443
:10062000911DB29F700D811D1124911D0895F894A4
:02063000FFCFFA
:00000001FF
