:100000004CC0000068C0000066C0000064C0000072
:1000100062C0000060C000005EC000005CC0000064
:100020005AC0000058C0000056C0000054C0000074
:1000300052C0000050C000004EC000004CC0000084
:100040004AC0000048C0000046C0000044C0000094
:10005000ABC3000040C000003EC000003CC0000038
:100060003AC0000038C0000036C0000034C00000B4
:1000700032C0000030C000002EC000002CC00000C4
:100080002AC0000028C0000026C000005B026802F1
:100090007D029202A702BC02D10211241FBECFEF43
:1000A000D0E4DEBFCDBF11E0A0E0B1E0E6E5F3E1D2
:1000B00000E00BBF02C007900D92AA33B107D9F739
:1000C00022E0AAE3B1E001C01D92A135B207E1F739
:1000D00081D20C94A90994CF2A9A8FE19EE40197CA
:1000E000F1F700C000002A988FE19EE40197F1F734
:1000F00000C0000008950F931F93CF93DF932898BB
:100100002998419840985F985E985D985C985B98B4
:100110005A9815B181FB002700F9102B15B915B1BC
:1001200081709927880F991F812B85B98FE19EE4F3
:100130000197F1F700C0000088B167FB992790F99B
:10014000C92F90E0D92FCC0FDD1FC82BC8B988B1BB
:1001500066FB992790F9892B88B91BB1EB01D595DE
:10016000C795D595C795D595C795D595C795D59577
:10017000C795CE019695982F882797958795812BBF
:100180008BB98BB164FBAA27A0F9B0E00024B69527
:10019000A7950794B695A7950794BA2FA02DA82BDD
:1001A000ABB98BB163FBEE27E0F9F0E0EE0FFF1F78
:1001B000E295F295F07FFE27E07FFE27E82BEBB972
:1001C0008BB162FB442740F950E042955295507F35
:1001D0005427407F5427482B4BB98BB161FB222712
:1001E00020F930E0220F331F220F331F220F331F5D
:1001F000282B2BB98BB161707727660F771F660F9D
:10020000771F682B6BB98FE19EE40197F1F700C06F
:100210000000DF91CF911F910F91089561E070E090
:1002200080E090E068CF0895209A219A229A399A26
:10023000389A579A569A559A549A539A529A2A9893
:100240002FEF89E698E1215080409040E1F700C00F
:10025000000060E370E080E090E04DDF3DDF60E3B0
:1002600070E080E090E047DF37DF60E370E080E03F
:1002700090E041DF31DF68E370E080E090E03BDF59
:100280002BDF6FE070E080E090E035DF25DFC6DF38
:1002900023DF66E070E080E090E02DDF1DCF089561
:1002A00010D284E9F6D18FEFFAD10DD28FE891E028
:1002B0000197F1F700C00000089503D284E9E9D165
:1002C0008FEFEDD100C20895CF93DF93FAD180E88C
:1002D000E0D18FE891E00197F1F700C000008FEFC7
:1002E000DED1EC01F0D1CE01969587959770DF9124
:1002F000CF91089549E1489F9001499F300D112405
:10030000ABEABAEA20D59695879596958795969506
:100310008795BC0164537840882777FD8095982F96
:1003200080D424EA30E745ED50E4E0D347D4CB0154
:1003300008950F931F93CF93DF93992344F48C0177
:10034000065F1F4F112334F1C0E0D0E036C08C01AE
:100350000A50110910161106A4F4C0E0D0E0ADDF78
:10036000B3DFC8DFC80FD91F2FEF89E698E121500E
:1003700080409040E1F700C00000C017D1077CF337
:1003800002C0C0E0D0E081E090E090933B01809318
:100390003A0119C0C0E0D0E090DF96DFABDFC80FB4
:1003A000D91F2FEF89E698E1215080409040E1F776
:1003B00000C000000C171D077CF381E090E09093D3
:1003C0003B0180933A01CE01DF91CF911F910F91B4
:1003D00008950F931F93CF93DF93CDB7DEB70F81AF
:1003E000188560E171E0C801DAD4892B79F067E102
:1003F00071E0C801D4D4892B61F060E271E0C801DA
:10040000CED4892B49F483E090E008C081E090E0ED
:1004100005C082E090E002C080E090E0DF91CF91E3
:100420001F910F9108950F931F93CF93DF93CDB733
:10043000DEB70A851B852DB73EB72F5131090FB6A0
:10044000F8943EBF0FBE2DBFADB7BEB711968FE17A
:10045000FE01379601900D928A95E1F7BADF0FB64B
:10046000F894DEBF0FBECDBF8130910519F0029721
:10047000C1F0ABC041E06EE071E080E291E061D29A
:10048000C801AFD28C0155DFC80181D290930D0114
:1004900080930C0141E06CE071E080E191E051D289
:1004A00094C0C8019ED28730910508F08EC0FC012F
:1004B000EA5BFF4F42C441E06EE071E080E291E010
:1004C00040D246E060E071E087E191E03AD27DC041
:1004D00041E06EE071E080E291E033D28091000172
:1004E000909101019093500180934F0141E06FE49E
:1004F00071E087E191E025D268C041E06EE071E0F3
:1005000080E291E01ED280910201909103019093CC
:10051000500180934F0141E06FE471E087E191E089
:1005200010D253C041E06EE071E080E291E009D268
:1005300080910401909105019093500180934F01A7
:1005400041E06FE471E087E191E0FBD13EC041E022
:100550006EE071E080E291E0F4D18091060190912B
:1005600007019093500180934F0141E06FE471E0E7
:1005700087E191E0E6D129C041E06EE071E080E2E0
:1005800091E0DFD180910801909109019093500191
:1005900080934F0141E06FE471E087E191E0D1D1B8
:1005A00014C041E06EE071E080E291E0CAD1809138
:1005B0000A0190910B019093500180934F0141E00B
:1005C0006FE471E087E191E0BCD1DF91CF911F91A1
:1005D0000F910895CF93DF93CDB7DEB76F970FB626
:1005E000F894DEBF0FBECDBF8FE59AEE0197F1F70D
:1005F00000C0000010D218DE33D052DE83E390E05A
:1006000064D000E010E00F2EFFE1FF2EF02DD12C82
:10061000E12C02C00D2D1E2D802F2DD239D2CE01FE
:10062000019630D18DB79EB74F970FB6F8949EBF05
:100630000FBE8DBFADB7BEB71196FE0131968F2D9F
:1006400001900D928A95E1F7EEDE0FB6F894DEBFC9
:100650000FBECDBF05301105E9F20F5F1F4FDCCF94
:100660008CB580618CBD8CB580648CBD8CB58CBD27
:100670008CB588608CBD8CB584608CBD8CB5816078
:100680008CBD8CB582608CBD259A2698249A279AB9
:1006900008958EBD0DB407FEFDCF8EB508951F934E
:1006A000CF93DF93182FF5DFC82FD0E0812FF1DF34
:1006B000DC2FCC279E01282BC901DF91CF911F9100
:1006C00008952C9808952C9A08959093C5008093CE
:1006D000C400E1ECF0E080818061808380818860EB
:1006E000808380818068808386E08093C200089543
:1006F000E0ECF0E080818823ECF78091C60008955B
:10070000E0ECF0E0908195FFFDCF8093C600089566
:10071000CF92DF92EF92FF920F931F93CF93DF93CD
:100720008C017B0181E0E81AF1081E141F04F4F427
:10073000C0E0D0E0D12CC12CDBDF8B3329F4F801F1
:10074000ED0DF11D808315C0833211F09D2D01C088
:100750009C2DDD24D394D90EF801E90FF11D80837F
:10076000CD2DD0E0CE15DF053CF303C0C0E0D0E0D6
:10077000D12CF801ED0DF11D1182CE010196DF9112
:10078000CF911F910F91FF90EF90DF90CF90089540
:100790008091C00088233CF46FEF70E081E591E028
:1007A000B7DF80933C0108951F920F920FB60F920E
:1007B00011240BB60F922F933F934F935F936F9338
:1007C0007F938F939F93AF93BF93EF93FF93F8948F
:1007D000DFDF7894FF91EF91BF91AF919F918F915F
:1007E0007F916F915F914F913F912F910F900BBE31
:1007F0000F900FBE0F901F901895CF93DF93EC01D1
:100800008881882329F021967BDF89918111FCCF93
:10081000DF91CF910895FF920F931F93CF93DF93B2
:10082000CDB7DEB70DB71EB79A01261B370BEDB754
:10083000FEB7E21BF30B0FB6F894FEBF0FBEEDBF81
:100840002DB73EB72F5F3F4F641775075CF4FC016F
:10085000E60FF71FD901840F951FF190FD92E8175D
:10086000F907D9F7842F861B622F732F81500FB69B
:10087000F8941EBF0FBE0DBFDF91CF911F910F9156
:10088000FF9008959F92AF92BF92CF92DF92EF9226
:10089000FF920F931F93CF93DF937C0180913C01D4
:1008A000882309F43FC0909151019332D9F590E02B
:1008B000029794F1C2E5D1E0A12C61E070E001E083
:1008C00010E06E0198819A539230C0F49924939469
:1008D0009A0C8A2D90E05C01AA0CBB1CA80EB91ED4
:1008E000AE0CBF1CA80181E591E095DFF5016083A6
:1008F00071838283B8016F5F7F4FA92C0F5F1F4FF9
:1009000080913C0190E0081719073CF42196F6010C
:1009100090819B33B1F601C0A12C10923C01F701EC
:10092000A68E02C0F701168EC701DF91CF911F91ED
:100930000F91FF90EF90DF90CF90BF90AF909F907E
:100940000895EF92FF920F931F93CF93DF93D62FCB
:10095000C72FE42E52DFF12C1E141F047CF40D2F40
:100960001C2FC0E0D0E08AE3CBDEF80181919191A9
:100970008F0143DF2196CE15DF05ACF38BE3C0DE9C
:10098000DF91CF911F910F91FF90EF9008950F93FA
:100990001F93CF93DF93CDB7DEB764970FB6F8946C
:1009A000DEBF0FBECDBF9F938F9386E391E09F93F1
:1009B0008F938E010F5F1F4F1F930F9308D20F90DD
:1009C0000F900F900F900F900F90C80164960FB684
:1009D000F894DEBF0FBECDBFDF91CF911F910F9175
:1009E0000895CF93DF93CDB7DEB764970FB6F89431
:1009F000DEBF0FBECDBFBC01CE010196D9D1CE0165
:100A00000196B0D164960FB6F894DEBF0FBECDBF8D
:100A1000DF91CF9108950C9A0B9A0A9A089A099837
:100A2000209A10923D0110923F0110923E0184E005
:100A300080934001109242011092410188E080931E
:100A4000430110924501109244018CE080934601CD
:100A5000109248011092470180E180934901109261
:100A60004B0110924A0184E180934C0110924E0197
:100A700010924D01089590E0FC01EE0FFF1F8E0FC4
:100A80009F1FFC01E35CFE4F6081718182810895AC
:100A900082B1837E82B982B1682B62B9109A80EFED
:100AA0008A95F1F71098019BFECF019B0BC020E0C7
:100AB00030E092E09A95F1F700C02F5F3F4F019927
:100AC000F8CF02C020E030E08FE39CE90197F1F716
:100AD00000C00000ADECBCEC36D1969587959295A0
:100AE00082958F7089279F70892708950CD0EBC05D
:100AF000E3D040F0DAD030F021F45F3F19F0CCC001
:100B0000511115C1CFC0F0D098F39923C9F35523E3
:100B1000B1F3951B550BBB27AA27621773078407F0
:100B200038F09F5F5F4F220F331F441FAA1FA9F3A6
:100B300033D00E2E3AF0E0E830D091505040E69598
:100B4000001CCAF729D0FE2F27D0660F771F881FF9
:100B5000BB1F261737074807AB07B0E809F0BB0BE8
:100B6000802DBF01FF2793585F4F2AF09E3F51050C
:100B700068F092C0DCC05F3FECF3983EDCF38695F2
:100B800077956795B795F7959F5FC9F7880F911D82
:100B90009695879597F90895E1E0660F771F881F6E
:100BA000BB1F621773078407BA0720F0621B730B21
:100BB000840BBA0BEE1F88F7E095089504D0689473
:100BC000B111B5C0089598D088F09F5790F0B92F13
:100BD0009927B751A0F0D1F0660F771F881F991F92
:100BE0001AF0BA95C9F712C0B13081F09FD0B1E0C8
:100BF00008959CC0672F782F8827B85F39F0B93FD8
:100C0000CCF3869577956795B395D9F73EF4909593
:100C10008095709561957F4F8F4F9F4F0895E89411
:100C200009C097FB3EF490958095709561957F4F34
:100C30008F4F9F4F9923A9F0F92F96E9BB279395E2
:100C4000F695879577956795B795F111F8CFFAF4F2
:100C5000BB0F11F460FF1BC06F5F7F4F8F4F9F4F23
:100C600016C0882311F096E911C0772321F09EE881
:100C7000872F762F05C0662371F096E8862F70E0E7
:100C800060E02AF09A95660F771F881FDAF7880FC1
:100C90009695879597F9089597F99F6780E870E092
:100CA00060E008959FEF80EC089500240A941616E2
:100CB000170618060906089500240A94121613064A
:100CC000140605060895092E0394000C11F48823D8
:100CD00052F0BB0F40F4BF2B11F460FF04C06F5FF4
:100CE0007F4F8F4F9F4F089557FD9058440F551FCA
:100CF00059F05F3F71F04795880F97FB991F61F09E
:100D00009F3F79F087950895121613061406551F14
:100D1000F2CF4695F1DF08C0161617061806991F80
:100D2000F1CF86957105610508940895E894BB2775
:100D300066277727CB0197F90895EE0FFF1F0590DF
:100D4000F491E02D0994A29FB001B39FC001A39F2D
:100D5000700D811D1124911DB29F700D811D1124F4
:100D6000911D0895FC0188279927E894219120324C
:100D7000E9F3293010F02E30C8F32B3239F02D3240
:100D800031F4689403C01BD0820F911D2191205330
:100D90002A30C8F31EF4909581959F4F0895FB016A
:100DA000DC018D91019080190110D9F3990B089500
:100DB000FB01DC0101900D920020E1F708957AE03B
:100DC000979F902D879F802D910D112408950F934B
:100DD0001F93CF93DF93CDB7DEB72E970FB6F8945E
:100DE000DEBF0FBECDBF0D891E8986E08C831A83BE
:100DF00009838FEF9FE79E838D83AE01475E5F4F30
:100E00006F89788DCE01019610D0EF81F885E00FC3
:100E1000F11F10822E960FB6F894DEBF0FBECDBF25
:100E2000DF91CF911F910F9108952F923F924F9292
:100E30005F926F927F928F929F92AF92BF92CF926A
:100E4000DF92EF92FF920F931F93CF93DF93CDB773
:100E5000DEB72C970FB6F894DEBF0FBECDBF7C0176
:100E60006B018A01FC0117821682838181FFB0C168
:100E7000CE0101964C01F7019381F60193FD859116
:100E800093FF81916F01882309F49EC1853239F463
:100E900093FD859193FF81916F01853221F4B70114
:100EA00090E0C7D1E8CF512C312C20E02032A0F4C3
:100EB0008B3269F030F4803259F0833269F420616A
:100EC0002CC08D3239F0803339F4216026C0226085
:100ED000246023C0286021C027FD27C030ED380FD3
:100EE0003A3078F426FF06C0FAE05F9E300D1124F8
:100EF000532E13C08AE0389E300D1124332E206209
:100F00000CC08E3221F426FD5FC1206406C08C36F1
:100F100011F4206802C0883641F4F60193FD8591F2
:100F200093FF81916F018111C1CF982F9F7D9554BF
:100F3000933028F40C5F1F4FFFE3F9830DC0833615
:100F400031F0833771F0833509F057C021C0F801C3
:100F5000808189830E5F1F4F44244394512C540198
:100F600014C03801F2E06F0E711CF801A080B1804E
:100F700026FF03C0652D70E002C06FEF7FEFC50153
:100F80002C874CD12C0183012C852F77222E16C063
:100F90003801F2E06F0E711CF801A080B18026FFCD
:100FA00003C0652D70E002C06FEF7FEFC5012C8795
:100FB0002AD12C012C852068222E830123FC19C004
:100FC000832D90E048165906A0F4B70180E290E026
:100FD00030D13A94F5CFF50127FC859127FE819118
:100FE0005F01B70190E025D131103A94F1E04F1A3A
:100FF00051084114510479F7DEC0843611F0893666
:1010000031F5F80127FF07C06081718182819381EA
:101010000C5F1F4F08C060817181882777FD809524
:10102000982F0E5F1F4F2F76B22E97FF09C0909515
:101030008095709561957F4F8F4F9F4F2068B22E9E
:101040002AE030E0A40127D1A82EA81843C0853794
:1010500029F42F7EB22E2AE030E025C0F22FF97F4E
:10106000BF2E8F36C1F018F4883579F0ADC08037C7
:1010700019F0883721F0A8C02F2F2061B22EB4FEBE
:101080000DC08B2D8460B82E09C024FF0AC09F2F8D
:101090009660B92E06C028E030E005C020E130E0BF
:1010A00002C020E132E0F801B7FE07C06081718123
:1010B000828193810C5F1F4F06C06081718180E047
:1010C00090E00E5F1F4FA401E6D0A82EA818FB2DBC
:1010D000FF77BF2EB6FE0BC02B2D2E7FA51450F42C
:1010E000B4FE0AC0B2FC08C02B2D2E7E05C07A2C9F
:1010F0002B2D03C07A2C01C0752C24FF0DC0FE01DE
:10110000EA0DF11D8081803311F4297E09C022FF90
:1011100006C07394739404C0822F867809F0739488
:1011200023FD12C020FF06C05A2C731418F4530C70
:101130005718732C731460F4B70180E290E02C8789
:1011400078D073942C85F6CF731410F4371801C03F
:10115000312C24FF11C0B70180E390E02C8769D0C7
:101160002C8522FF16C021FF03C088E590E002C055
:1011700088E790E0B7010CC0822F867851F021FDFE
:1011800002C080E201C08BE227FD8DE2B70190E052
:1011900050D0A51430F4B70180E390E04AD05A94BF
:1011A000F8CFAA94F401EA0DF11D8081B70190E017
:1011B00040D0A110F6CF332009F45DCEB70180E214
:1011C00090E037D03A94F7CFF7018681978102C03B
:1011D0008FEF9FEF2C960FB6F894DEBF0FBECDBFFA
:1011E000DF91CF911F910F91FF90EF90DF90CF9003
:1011F000BF90AF909F908F907F906F905F904F9037
:101200003F902F900895FC010590615070400110AF
:10121000D8F7809590958E0F9F1F0895FC0161501F
:10122000704001900110D8F7809590958E0F9F1F08
:1012300008950F931F93CF93DF93182F092FEB017E
:101240008B8181FD03C08FEF9FEF20C082FF10C014
:101250004E815F812C813D81421753077CF4E881E8
:10126000F9819F012F5F3F4F39832883108306C088
:10127000E885F985812F0995892B29F72E813F81F2
:101280002F5F3F4F3F832E83812F902FDF91CF9190
:101290001F910F910895FA01AA27283051F12031AA
:1012A00081F1E8946F936E7F6E5F7F4F8F4F9F4FFA
:1012B000AF4FB1E03ED0B4E03CD0670F781F891F3C
:1012C0009A1FA11D680F791F8A1F911DA11D6A0F0A
:1012D000711D811D911DA11D20D009F468943F91BD
:1012E0002AE0269F11243019305D3193DEF6CF01BC
:1012F0000895462F4770405D4193B3E00FD0C9F782
:10130000F6CF462F4F70405D4A3318F0495D31FDEE
:101310004052419302D0A9F7EACFB4E0A695979541
:10132000879577956795BA95C9F700976105710517
:1013300008959B01AC010A2E069457954795379561
:101340002795BA95C9F7620F731F841F951FA01DBB
:061350000895F894FFCFA0
:1013560032013201320132013201320134012D01F2
:10136600726F746174650064697374616E6365009D
:101376006163636570740066616C73650074727591
:0A13860065003030300025750000CE
:00000001FF
