S013000053656E736F726D6F64756C2E7372656376
S113000045C0000053C0000051C000004FC00000B4
S11300104DC000004BC0000049C0000047C00000B4
S113002045C0000043C0000041C000003FC00000C4
S11300303DC0000043C0000039C0000037C00000CC
S113004035C0000033C0000031C000002FC00000E4
S11300502DC000002BC0000029C0000027C00000F4
S113006025C0000023C0000021C000001FC0000004
S11300701DC000001BC0000019C0000017C0000014
S113008015C0000013C0000011C0000011241FBEE1
S1130090CFEFD0E4DEBFCDBF21E0A0E0B1E001C0EE
S11300A01D92AE30B207E1F702D089C0A9CF4CD07F
S11300B0C0E0D1E08881998180D0FCCF1F920F925B
S11300C00FB60F9211240BB60F922F933F934F93B9
S11300D05F936F937F938F939F93AF93BF93EF93AC
S11300E0FF93E0910C01F0910D010995FF91EF91BF
S11300F0BF91AF919F918F917F916F915F914F913C
S11301003F912F910F900BBE0F900FBE0F901F9039
S1130110189561157105B9F0EFE6F0E090819D7FC7
S113012090837093890060938800109280008860A7
S1130130809381001092850010928400B19AB19B43
S1130140FECF1092810008950C9A0B9A0A9A089A8D
S11301500998209A83EE809300011092010187EEA2
S113016080930201109203018BEE8093040110929C
S113017005018FEE809306011092070183EF8093AF
S113018008011092090187EF80930A0110920B0174
S11301900895CF9392B1892382B9109A119B0AC012
S11301A0C1E085B18C2785B960E074E282E0B1DFFB
S11301B01199F7CF80E0CF910895EBCF0895F8948B
S10501C0FFCF6B
S9030000FC
