:1000000045C0000060C000005EC000005CC0000091
:100010005AC0000058C0000056C0000054C0000084
:1000200052C0000050C000004EC000004CC0000094
:100030004AC0000048C0000046C0000044C00000A4
:1000400042C0000040C000003EC000003CC00000B4
:100050007BC3000038C0000036C0000034C0000080
:1000600032C0000030C000002EC000002CC00000D4
:100070002AC0000028C0000026C0000024C00000E4
:1000800022C0000020C000001EC0000011241FBEBE
:10009000CFEFD0E4DEBFCDBF11E0A0E0B1E0E0EEF5
:1000A000FCE000E00BBF02C007900D92AA35B1073B
:1000B000D9F722E0AAE5B1E001C01D92A936B20746
:1000C000E1F779D20BC69CCF2A9A8FE19EE4019783
:1000D000F1F700C000002A988FE19EE40197F1F744
:1000E00000C0000008950F931F93CF93DF932898CB
:1000F0002998419840985F985E985D985C985B98C5
:100100005A9815B181FB002700F9102B15B915B1CC
:1001100081709927880F991F812B85B98FE19EE403
:100120000197F1F700C0000088B167FB992790F9AB
:10013000C92F90E0D92FCC0FDD1FC82BC8B988B1CB
:1001400066FB992790F9892B88B91BB1EB01D595EE
:10015000C795D595C795D595C795D595C795D59587
:10016000C795CE019695982F882797958795812BCF
:100170008BB98BB164FBAA27A0F9B0E00024B69537
:10018000A7950794B695A7950794BA2FA02DA82BED
:10019000ABB98BB163FBEE27E0F9F0E0EE0FFF1F88
:1001A000E295F295F07FFE27E07FFE27E82BEBB982
:1001B0008BB162FB442740F950E042955295507F45
:1001C0005427407F5427482B4BB98BB161FB222722
:1001D00020F930E0220F331F220F331F220F331F6D
:1001E000282B2BB98BB161707727660F771F660FAD
:1001F000771F682B6BB98FE19EE40197F1F700C080
:100200000000DF91CF911F910F91089561E070E0A0
:1002100080E090E068DF58CF0895209A219A229AD2
:10022000399A389A579A569A559A549A539A529A92
:100230002A982FEF89E698E1215080409040E1F71D
:1002400000C0000060E370E080E090E04CDF3CDF45
:1002500060E370E080E090E046DF36DF60E370E06E
:1002600080E090E040DF30DF68E370E080E090E025
:100270003ADF2ADF6FE070E080E090E034DF24DFD7
:10028000C5DF66E070E080E090E02DDF1DCF0895CF
:10029000EF92FF920F931F93CF93DF9300D000D084
:1002A00000D0CDB7DEB786E0E6E0F1E0DE011196E2
:1002B00001900D928A95E1F7CE0101967C0105E847
:1002C00010E0B80180E090E00EDFFEDEF701619102
:1002D0007F0170E082E090E006DFF6DE0F5F1F4FE7
:1002E0000A38110571F726960FB6F894DEBF0FBED7
:1002F000CDBFDF91CF911F910F91FF90EF900895A7
:10030000B8D184E99ED18FEFA2D1B5D18FE891E029
:100310000197F1F700C000000895ABD184E991D1B5
:100320008FEF95D1A8C10895CF93DF93A2D180E834
:1003300088D18FE891E00197F1F700C000008FEFBE
:1003400086D1EC0198D1CE01969587959770DF9173
:10035000CF91089549E1489F9001499F300D1124A4
:10036000ABEABAEA4BD4969587959695879596957C
:100370008795BC0160577E4F882777FD8095982F21
:10038000B1D324EA30E745ED50E411D378D3CB0163
:1003900008950F931F93CF93DF938C0118161906BE
:1003A0008CF4C0E0D0E0B9DFBFDFD4DFC80FD91FC5
:1003B000C017D107C4F381E090E090935B01809374
:1003C0005A0115C099238CF4C0E0D0E0A6DFACDF61
:1003D000C1DFC80FD91F0C171D07C4F381E090E0DF
:1003E00090935B0180935A0102C0C0E0D0E0CE013F
:1003F000DF91CF911F910F910895CF93DF93EC017F
:1004000068E371E027D4892B79F06FE371E0CE01C6
:1004100021D4892B61F068E471E0CE011BD4892BD3
:1004200049F483E090E008C081E090E005C082E0FC
:1004300090E002C080E090E0DF91CF910895CF93EB
:10044000DF93EC0165966FE471E0CE0103D4009771
:1004500059F065E571E0CE01FDD331E020E0892B54
:1004600009F030E0832F922FDF91CF910895DF9232
:10047000EF92FF920F931F93CF93DF93CDB7DEB729
:100480002C970FB6F894DEBF0FBECDBF8C01B5DF41
:1004900082309105F1F08330910509F46DC0019728
:1004A00009F075C041E064E071E088E491E0F4D1C6
:1004B000C8014596B2D36DDF6091000170910101D2
:1004C0004AE0D1D341E060E071E088E391E0E4D11B
:1004D00064C0C8014596A1D3182F811122C041E004
:1004E00064E071E088E491E0D7D18E010F5F1F4F87
:1004F000D12CF801E190F1908F018D2D1FD2FC01DC
:1005000081814AE0B70190E0AED3D394F6E0DF12E8
:10051000F0CF46E0BE016F5F7F4F8FE391E0BCD12B
:100520003CC0FF24FA94F80E85E08F15F0F041E00E
:1005300064E071E088E491E0AFD169817A814AE0BA
:10054000812F90E090D30B811C818F2DF7D1FC017E
:1005500081814AE0B80190E086D342E0BE016F5F3E
:100560007F4F8FE391E098D118C041E062E071E0E5
:1005700088E491E091D111C0C80161DF029768F071
:1005800041E062E071E088E491E086D106C041E09C
:1005900062E071E088E491E07FD12C960FB6F89488
:1005A000DEBF0FBECDBFDF91CF911F910F91FF90A6
:1005B000EF90DF900895CF93DF93CDB7DEB7C35DA3
:1005C000D1090FB6F894DEBF0FBECDBF93D125DEA3
:1005D0001FD096DE83E390E050D0789459DE00E09F
:1005E00010E0E12CF12C02C00E2D1F2D802FA6D182
:1005F000ABD1DFD0882331F0CE010196F7D0CE0108
:10060000019635DF0530110579F30F5F1F4FEECFEF
:100610008CB580618CBD8CB580648CBD8CB58CBD77
:100620008CB588608CBD8CB584608CBD8CB58160C8
:100630008CBD8CB582608CBD259A2698249A279A09
:1006400008958EBD0DB407FEFDCF8EB508951F939E
:10065000CF93DF93182FF5DFC82FD0E0812FF1DF84
:10066000DC2FCC279E01282BC901DF91CF911F9150
:1006700008952C9808952C9A08959093C50080931E
:10068000C400E1ECF0E0808180618083808188603B
:10069000808380818068808386E08093C200089593
:1006A000E0ECF0E080818823ECF78091C6000895AB
:1006B000E0ECF0E0908195FFFDCF8093C6000895B7
:1006C000DF92EF92FF920F931F93CF93DF93EC0192
:1006D000F12C8B01015011090F2EF3E2DF2EF02DCA
:1006E000EE24E3940CC0DCDF8332B9F091E09F0D7F
:1006F000FE01EF0DF11D80838B3339F0F92E2F2D84
:1007000030E0201731077CF301C0F92E8F2D90E0E7
:10071000C80FD91F1882019603C0D8829E2DEECF34
:10072000DF91CF911F910F91FF90EF90DF9008958F
:100730008091C00088233CF46FEF70E089E691E07F
:10074000BFDF80935C0108951F920F920FB60F9246
:1007500011240BB60F922F933F934F935F936F9398
:100760007F938F939F93AF93BF93EF93FF93E0DFBC
:10077000FF91EF91BF91AF919F918F917F916F9179
:100780005F914F913F912F910F900BBE0F900FBE35
:100790000F901F901895CF93DF93EC0188818823E9
:1007A00029F0219685DF89918111FCCFDF91CF91CE
:1007B000089580915C010895CF93641775075CF4E8
:1007C000FC01E60FF71FD901840F951FC191CD934E
:1007D000E817F907D9F7FA01E61BF70BE20FF31F49
:1007E0001082461BF901448BCF910895BF92CF929E
:1007F000DF92EF92FF920F931F93CF93DF937C01D1
:10080000F894FC01EE52FF4F108280915C01882326
:10081000C1F1909169019332A1F590E0029774F1D2
:100820000AE611E061E070E0C1E0D0E06F010F2E58
:10083000F5E1BF2EF02DF80181918F018A538230AE
:1008400090F4F601808191E0980F90839701B89E13
:10085000200D311D1124AE0189E691E0ADDFB80114
:100860006956714004C0329780818B3339F02196EC
:1008700020915C0130E0C217D307ECF210925C01CA
:1008800078947894DF91CF911F910F91FF90EF9022
:10089000DF90CF90BF900895CF92DF92EF92FF92BA
:1008A0000F931F93CF93DF93EC01C62ED72EE42E28
:1008B00083E2FEDECE016FDFF12C1E141F047CF4F8
:1008C0000C2D1D2DC0E0D0E08AE3F2DEF80181910D
:1008D00091918F0160DF2196CE15DF05ACF38BE39C
:1008E000E7DEDF91CF911F910F91FF90EF90DF90A6
:1008F000CF9008950C9A0B9A0A9A089A0998209A10
:10090000109263011092640184E08093610110925F
:10091000620188E080935F01109260018CE0809317
:100920005D0110925E0180E1809365011092660185
:1009300084E18093670110926801089590E0880F28
:10094000991F835A9E4F0895FC0182B1837E82B91C
:1009500092B18081892B82B9109A88E28A95F1F749
:100960001098019BFECF019B0FC020E030E092E089
:100970009A95F1F700C02F5F3F4F019B07C0203AC7
:100980008CE83807A1F702C020E030E08FE295E75D
:100990000197F1F700C00000AFE9B6E42FD19695BA
:1009A00087959695879596958795818308950CD020
:1009B000EBC0E3D040F0DAD030F021F45F3F19F023
:1009C000CCC0511115C1CFC0F0D098F39923C9F311
:1009D0005523B1F3951B550BBB27AA276217730745
:1009E000840738F09F5F5F4F220F331F441FAA1FF9
:1009F000A9F333D00E2E3AF0E0E830D091505040B9
:100A0000E695001CCAF729D0FE2F27D0660F771F66
:100A1000881FBB1F261737074807AB07B0E809F048
:100A2000BB0B802DBF01FF2793585F4F2AF09E3FDD
:100A3000510568F092C0DCC05F3FECF3983EDCF3F8
:100A4000869577956795B795F7959F5FC9F7880F56
:100A5000911D9695879597F90895E1E0660F771FA8
:100A6000881FBB1F621773078407BA0720F0621B39
:100A7000730B840BBA0BEE1F88F7E095089504D032
:100A80006894B111B5C0089598D088F09F5790F040
:100A9000B92F9927B751A0F0D1F0660F771F881FA3
:100AA000991F1AF0BA95C9F712C0B13081F09FD0E2
:100AB000B1E008959CC0672F782F8827B85F39F080
:100AC000B93FCCF3869577956795B395D9F73EF402
:100AD00090958095709561957F4F8F4F9F4F0895AA
:100AE000E89409C097FB3EF49095809570956195C8
:100AF0007F4F8F4F9F4F9923A9F0F92F96E9BB277E
:100B00009395F695879577956795B795F111F8CFF9
:100B1000FAF4BB0F11F460FF1BC06F5F7F4F8F4F64
:100B20009F4F16C0882311F096E911C0772321F05A
:100B30009EE8872F762F05C0662371F096E8862FF2
:100B400070E060E02AF09A95660F771F881FDAF749
:100B5000880F9695879597F9089597F99F6780E88C
:100B600070E060E008959FEF80EC089500240A94FF
:100B70001616170618060906089500240A94121678
:100B80001306140605060895092E0394000C11F4AB
:100B9000882352F0BB0F40F4BF2B11F460FF04C058
:100BA0006F5F7F4F8F4F9F4F089557FD9058440FB1
:100BB000551F59F05F3F71F04795880F97FB991FBC
:100BC00061F09F3F79F08795089512161306140679
:100BD000551FF2CF4695F1DF08C016161706180606
:100BE000991FF1CF86957105610508940895E894E1
:100BF000BB2766277727CB0197F90895A29FB001FD
:100C0000B39FC001A39F700D811D1124911DB29F40
:100C1000700D811D1124911D0895FC0188279927CD
:100C2000E89421912032E9F3293010F02E30C8F3F6
:100C30002B3239F02D3231F4689403C01ED0820F6C
:100C4000911D219120532A30C8F31EF4909581956F
:100C50009F4F0895FB01DC018D91019080190110D7
:100C6000D9F3990B0895BB274A3031F4992322F424
:100C7000BDE2909581959F4F09C07AE0979F902D96
:100C8000879F802D910D11240895BB27FB015527C7
:100C9000AA27880F991FAA1FA41710F0A41B8395D9
:100CA0005051B9F7A05DAA3308F0A95DA193009750
:100CB00079F7B111B1931192CB0100C0DC01FC01B5
:100CC000672F71917723E1F7329704C07C916D9380
:100CD00070836291AE17BF07C8F30895F894FFCFF1
:100CE0000E014F015501424F535345003030300043
:100CF00044313A200044323A200044333A20004440
:100D0000343A200044353A200044363A2000444921
:100D10005354005445535400726F746174650064F9
:100D2000697374616E636500616363657074006606
:0A0D3000616C736500747275650054
:00000001FF
