S013000053656E736F726D6F64756C2E7372656376
S113000045C0000053C0000051C000004FC00000B4
S11300104DC000004BC0000049C0000047C00000B4
S113002045C0000043C0000041C000003FC00000C4
S11300303DC00000B7C0000039C0000037C0000058
S113004035C0000033C0000031C000002FC00000E4
S11300502DC000002BC0000029C0000027C00000F4
S113006025C0000023C0000021C000001FC0000004
S11300701DC000001BC0000019C0000017C0000014
S113008015C0000013C0000011C0000011241FBEE1
S1130090CFEFD0E4DEBFCDBF21E0A0E0B1E001C0EE
S11300A01D92A230B207E1F72DD0A7C0A9CF76D018
S11300B084E95CD08FEF60D073D08BE291E001973C
S11300C0F1F700C00000089569D084E94FD08FEFA4
S11300D053D066C00895CF93DF93F6DF5FD080E8F6
S11300E045D08BE291E00197F1F700C000008FEF5B
S11300F043D0EC0155D0CE01969587959770DF914A
S1130100CF9108951AD0D3DF0D9AD0E1C0E0E3DF98
S11301102D2F3C2F992314F4159A01C01598880F9C
S1130120991FEFE1FEE43197F1F700C00000215080
S113013031092115310571F7EACF8CB580618CBD89
S11301408CB580648CBD8CB58CBD8CB588608CBD41
S11301508CB584608CBD8CB581608CBD8CB582609F
S11301608CBD259A2698249A279A08958EBD0DB49D
S113017007FEFDCF8EB508951F93CF93DF93182FFD
S1130180F5DFC82FD0E0812FF1DFDC2FCC279E01D3
S1130190282BC901DF91CF911F9108952C980895C0
S11301A02C9A08951F920F920FB60F9211240BB63A
S11301B00F922F933F934F935F936F937F938F93FC
S11301C09F93AF93BF93EF93FF93E0910001F0915E
S11301D001010995FF91EF91BF91AF919F918F918B
S11301E07F916F915F914F913F912F910F900BBE33
S11101F00F900FBE0F901F901895F894FFCF3C
S9030000FC
