S013000053656E736F726D6F64756C2E7372656376
S113000045C0000061C000005FC000005DC000008A
S11300105BC0000059C0000057C0000055C000007C
S113002053C0000051C000004FC000004DC000008C
S11300304BC0000049C0000047C0000045C000009C
S113004043C0000041C000003FC000003DC00000AC
S113005081C5000039C0000037C0000035C0000071
S113006033C0000031C000002FC000002DC00000CC
S11300702BC0000029C0000027C0000025C00000DC
S113008023C0000021C000001FC0000011241FBEB7
S1130090CFEFD0E4DEBFCDBF11E0A0E0B1E0EEE4ED
S11300A0F2E200E00BBF02C007900D92AC3BB10737
S11300B0D9F723E0ACEBB1E001C01D92A931B2073E
S11300C0E1F768D40C9425119BCF2A9A87EE93E02C
S11300D00197F1F700C000002A9887EE93E001979A
S11300E0F1F700C0000008950F931F93CF93DF939F
S11300F028982998419840985F985E985D985C98F4
S11301005B985A9815B181FB002700F9102B15B99B
S113011015B181709927880F991F812B85B987EEB6
S113012093E00197F1F700C0000088B167FB9927BD
S113013090F9C92F90E0D92FCC0FDD1FC82BC8B977
S113014088B166FB992790F9892B88B91BB1EB011B
S1130150D595C795D595C795D595C795D595C79583
S1130160D595C795CE019695982F8827979587950D
S1130170812B8BB98BB164FBAA27A0F9B0E00024D2
S1130180B695A7950794B695A7950794BA2FA02D71
S1130190A82BABB98BB163FBEE27E0F9F0E0EE0FCF
S11301A0FF1FE295F295F07FFE27E07FFE27E82B04
S11301B0EBB98BB162FB442740F950E0429552956C
S11301C0507F5427407F5427482B4BB98BB161FB98
S11301D0222720F930E0220F331F220F331F220F72
S11301E0331F282B2BB98BB161707727660F771FCC
S11301F0660F771F682B6BB987EE93E00197F1F7D1
S113020000C00000DF91CF911F910F91089561E02C
S113021070E080E090E068DF58CF0895CF92DF92DD
S1130220EF92FF920F931F93CF93DF93FC012081F2
S1130230222301F1062F172FEC0121966C01F2E223
S1130240CF0ED11C7C01B80180E090E04DDF3DDF92
S1130250F701608170E082E090E046DF36DF7E01E6
S11302602196F7018081882329F00F5F1F4FCC1559
S1130270DD0549F7DF91CF911F910F91FF90EF902A
S1130280DF90CF90089565E870E088E691E0C6CFEE
S11302900895CF93DF93EC0180E090E025DF15DF34
S11302A0BE01605D7F4F82E090E01EDF0EDFDF91D4
S11302B0CF91089560EC70E08EE691E0AFDF69ECD9
S11302C070E083E791E0AADF60E970E088E791E0FD
S11302D0A5DF69E970E08DE791E0A0DF60ED70E0F3
S11302E082E891E09BDF69ED70E087E891E096CFCA
S11302F00895209A219A229A399A389A579A569AA6
S1130300559A549A539A529A2A982FEF83ED90E370
S1130310215080409040E1F700C0000060E370E0AD
S113032080E090E0E1DED1DE60E370E080E090E028
S1130330DBDECBDE60E370E080E090E0D5DEC5DE9E
S113034068E370E080E090E0CFDEBFDE6FE070E055
S113035080E090E0C9DEB9DE5ADF66E070E080E05C
S113036090E0C2DEB2DE8FDFA5CF0895CF92DF9298
S1130370EF92FF920F931F93CF93DF93EB0107D577
S1130380FC010281138198013695279536952795AE
S1130390ABE7B4E1C0D7AC01569547959801ADECF5
S11303A0BCECB9D77C01F694E794F694E794F69400
S11303B0E7949A01220F331FCA01880F991F880FEF
S11303C0991F880F991F820F931F6701C81AD90AB2
S11303D0BE01CA015EDFBE016F5F7F4FC60159DFF8
S11303E0BE016E5F7F4FC701880F991FEE0CFF1C83
S11303F0EE0CFF1CEE0CFF1CE80EF91EC8018E1952
S11304009F0947DFDF91CF911F910F91FF90EF90EC
S1130410DF90CF90089582309105C9F02CF40097B5
S113042051F0019771F0089584309105E1F0ACF03A
S11304300597F9F0089564EC70E080E090E096CFC1
S113044008956DEC70E081E090E090CF089564E948
S113045070E082E090E08ACF08956DE970E083E077
S113046090E084CF089564ED70E084E090E07ECF66
S113047008956DED70E085E090E078CF0895CF9316
S1130480DF93E3D284E9C9D28FEFCDD2EC01DFD27E
S1130490DD230CF4F4DF8FE193E00197F1F700C062
S11304A00000DF91CF910895CF93DF93CED280E9FE
S11304B0B4D28FEFB8D2EC01CAD2DD230CF4F4DF4E
S11304C0DF91CF910895CF93DF93BFD284E9A5D272
S11304D08FEFA9D2EC01BBD2DD230CF4F4DFDF9162
S11304E0CF910895CF93DF93B0D280E896D28FE175
S11304F093E00197F1F700C000008FEF94D2EC0174
S1130500A6D2CE01969587959770DF91CF910895E5
S113051049E1489F9001499F300D1124ABEABAEAA2
S1130520FAD6969587959695879596958795BC0165
S113053060577E4F80E090E038D620E030E44CE114
S113054055E431D524EA30E745ED50E495C50895E6
S11305508F929F92AF92BF92CF92DF92EF92FF92CF
S1130560CF93DF93EC018BDF1C161D06ACF5BE01A7
S1130570882777FD8095982F1AD64B015C0120E0DF
S113058030E0A901C4D618160CF05CC0C8EED3E064
S1130590C12CD12C760197DFA5DFBADF20E030E053
S11305A048EC52E469D59B01AC01C701B601FCD407
S11305B06B017C018FE39CE90197F1F700C0000017
S11305C0A5019401C701B60153D588230CF045C099
S11305D02197209701F741C0DD230CF037C0BE01FD
S11305E0882777FD8095982FE2D54B015C0120E0A8
S11305F030E0A9013DD588236CF5C8EED3E0C12CC9
S1130600D12C760160DF6EDF83DF20E030E048EC40
S113061052E432D59B01AC01C701B601C5D46B01CC
S11306207C018FE39CE90197F1F700C00000A5016C
S11306309401C701B6016BD618167CF42197209754
S113064009F70BC0C12CD12C760107C0C12CD12CC9
S1130650760103C0C12CD12C760126DFC701B60177
S1130660DF91CF91FF90EF90DF90CF90BF90AF904C
S11306709F908F900895CF93DF93EC016CE871E025
S11306800E94FA0D892B89F063E971E0CE010E9482
S1130690FA0D892B69F06CE971E0CE010E94FA0D24
S11306A0892B49F483E090E008C081E090E005C024
S11306B082E090E002C080E090E0DF91CF91089565
S11306C0AF92BF92CF92DF92EF92FF920F931F935C
S11306D0CF93DF93CDB7DEB72C970FB6F894DEBF78
S11306E00FBECDBF8C01C7DF8230910509F43CC039
S11306F08330910509F43DC1019709F030C184E0CC
S113070090E018D69A83898341E068E071E08CE92F
S113071091E0C8D24AE050E060E070E0C80145963C
S11307200E94C10CCB0114DF0FD57F936F938EEA27
S113073091E09F938F931F9284E08F938A818F938C
S113074089818F930E94030E41E0BE016F5F7F4F4A
S11307508CE891E0A7D289819A8184D60FB6F89467
S1130760DEBF0FBECDBF05C14AE050E060E070E0DF
S1130770C80145960E94C10C162F61114DC041E07D
S113078066E071E08CE991E08DD28E010F5F1F4F1E
S1130790B12C0F2EF1EBCF2EF1E0DF2EF02D68946B
S11307A0AA24A2F884E090E0C5D57801F8018193E9
S11307B091938F018B2DEBD2FC0183818F938281E6
S11307C08F93DF92CF921F92AF92F70181818F9323
S11307D080818F930E94030EB3940FB6F894DEBF0A
S11307E00FBECDBF96E0B912DDCF46E0BE016F5F0C
S11307F07F4F83E991E056D27E01EDE0EE0EF11CCD
S11308008E010F5F1F4FF801819191918F012AD6BC
S11308100E151F05C1F7ADC0FF24FA94F60EF5E0DE
S1130820FF1508F444C041E066E071E08CE991E012
S113083039D282E090E07ED5E82ED92E89839A833E
S113084084E090E077D59C838B831F921F9301EB08
S113085011E01F930F931F9282E08F93DF92EF9228
S11308600E94030E8F2D93D2FC0123812F9382814A
S11308708F931F930F931F9284E08F938C818F9398
S11308808B818F930E94030E42E0BE016F5F7F4F06
S113089083E991E007D289819A81E4D58B819C8197
S11308A0E1D50FB6F894DEBF0FBECDBF62C067308E
S11308B009F04EC041E066E071E08CE991E0F2D1CC
S11308C020D38E010F5F1F4FB12C0F2EF1EBCF2ED3
S11308D0F1E0DF2EF02D6894AA24A2F884E090E0E1
S11308E029D57801F801819391938F018B2D4FD2F3
S11308F0FC0183818F9382818F93DF92CF921F9229
S1130900AF92F70181818F9380818F930E94030EB0
S1130910B3940FB6F894DEBF0FBECDBF96E0B91204
S1130920DDCF46E0BE016F5F7F4F83E991E0BAD12E
S11309307E01EDE0EE0EF11C8E010F5F1F4FF801FA
S1130940819191918F018ED50E151F05C1F711C0AC
S113095041E066E071E084EB91E0A4D10AC0109319
S113096012020093110241E061E172E084EB91E034
S113097099D12C960FB6F894DEBF0FBECDBFDF9190
S1130980CF911F910F91FF90EF90DF90CF90BF9088
S1130990AF900895CF93DF93CDB7DEB7CF5DD10984
S11309A00FB6F894DEBF0FBECDBF8CE0EAE0F1E0F5
S11309B0DE01AC52BF4F01900D928A95E1F7A9D1A7
S11309C098DC47D087E690E05ED0789400E010E0B1
S11309D0C12CD12C02C00C2D1D2DF801EE0FFF1FD0
S11309E084ED90E08C0F9D1FE80FF91FF080E180EB
S11309F08F2DCDD1DCD18F2D9E2D0DDDE0D0882320
S1130A0031F0CE010196F8D0CE01019659DE0530C1
S1130A10110509F30F5F1F4FE0CF8EBD0DB407FE24
S1130A20FDCF8EB508951F93CF93DF93182FF5DF75
S1130A30C82FD0E0812FF1DFDC2FCC279E01282B9B
S1130A40C901DF91CF911F9108952C9808952C9A94
S1130A5008958CB580618CBD8CB580648CBD8CB5DB
S1130A608CBD8CB588608CBD8CB584608CBD8CB518
S1130A7081608CBD8CB582608CBD259A2698249AA1
S1130A80279AE5CF08959093C5008093C400E1ECC4
S1130A90F0E08081806180838081886080838081B0
S1130AA08068808386E08093C2000895E0ECF0E0E3
S1130AB080818823ECF78091C6000895E0ECF0E093
S1130AC0908195FFFDCF8093C6000895DF92EF9249
S1130AD0FF920F931F93CF93DF93EC01F12C8B01C3
S1130AE0015011090F2EF3E2DF2EF02DEE24E394D2
S1130AF00CC0DCDF8332B9F091E09F0DFE01EF0DF5
S1130B00F11D80838B3339F0F92E2F2D30E020171F
S1130B1031077CF301C0F92E8F2D90E0C80FD91F47
S1130B201882019603C0D8829E2DEECFDF91CF911B
S1130B301F910F91FF90EF90DF9008958091C00076
S1130B4088233CF46FEF70E083E192E0BFDF809391
S1130B50BC0108951F920F920FB60F9211240BB689
S1130B600F922F933F934F935F936F937F938F9342
S1130B709F93AF93BF93EF93FF93E0DFFF91EF91C8
S1130B80BF91AF919F918F917F916F915F914F91A1
S1130B903F912F910F900BBE0F900FBE0F901F909F
S1130BA01895CF93DF93EC018881882329F021964F
S1130BB085DF89918111FCCFDF91CF9108958091D8
S1130BC0BC010895CF93641775075CF4FC01E60F2C
S1130BD0F71FD901840F951FC191CD93E817F90729
S1130BE0D9F7FA01E61BF70BE20FF31F1082461B3D
S1130BF0F901448BCF910895BF92CF92DF92EF9287
S1130C00FF920F931F93CF93DF937C01F894FC0121
S1130C10EE52FF4F10828091BC018823C1F1909164
S1130C2013029332A1F590E0029774F104E112E00B
S1130C3061E070E0C1E0D0E06F010F2EF5E1BF2E5E
S1130C40F02DF80181918F018A53823090F4F601DE
S1130C50808191E0980F90839701B89E200D311DFB
S1130C601124AE0183E192E0ADDFB801635172401B
S1130C7004C0329780818B3339F021962091BC01D6
S1130C8030E0C217D307ECF21092BC017894789448
S1130C90DF91CF911F910F91FF90EF90DF90CF9054
S1130CA0BF900895CF92DF92EF92FF920F931F931C
S1130CB0CF93DF93EC01C62ED72EE42E83E2FEDE23
S1130CC0CE016FDFF12C1E141F047CF40C2D1D2D9E
S1130CD0C0E0D0E08AE3F2DEF801819191918F01C6
S1130CE060DF2196CE15DF05ACF38BE3E7DEDF9101
S1130CF0CF911F910F91FF90EF90DF90CF900895C7
S1130D00FC0180819181FB0120813181821B930B45
S1130D1008950C9A0B9A0A9A089A0998209A8EE0D8
S1130D20E7EEF1E0DF011D928A95E9F781E0809317
S1130D30E8018EE0E6E1F1E0A9EDB1E001900D9269
S1130D408A95E1F78EE0E4E2F1E0ABECB1E00190EA
S1130D500D928A95E1F78EE0E2E3F1E0ADEBB1E0CC
S1130D6001900D928A95E1F78EE0E0E4F1E0A5EFC1
S1130D70B1E001900D928A95E1F78EE0EEE4F1E0A6
S1130D80A3E0B2E001900D928A95E1F70895282F2F
S1130D9030E0220F331FC901880F991F880F991F54
S1130DA0880F991F821B930B83549E4F08950F93B2
S1130DB01F93CF93DF93CDB7DEB72A970FB6F8947E
S1130DC0DEBF0FBECDBF8C0182B1837E82B992B1EA
S1130DD0F8018081892B82B9109AF0E5FA95F1F730
S1130DE0109801997EC020EA3CE885E08A95F1F7E5
S1130DF00000019976C02150310921153105A9F768
S1130E0070C095E09A95F1F700002F5F3F4F019B6A
S1130E1007C0203AECE83E07A1F702C020E030E02A
S1130E208FE19EE40197F1F700C00000ADECBCEC4B
S1130E3072D296958795929582958F7089279F7027
S1130E408927F80121812330B9F028F4213041F0B9
S1130E50223061F022C02430A9F02530C9F01DC031
S1130E60F8019583848382E0818317C0F801978316
S1130E70868383E0818311C0F8019187808784E0B1
S1130E8081830BC0F8019387828785E0818305C045
S1130E90F8019587848781E08183F80184819581B5
S1130EA09A838983868197819C838B8380859185AE
S1130EB09E838D838285938598878F83848595858A
S1130EC09A87898720E836E042E050E065E070E0E8
S1130ED0CE0101969CD38D819E81F80193838283F8
S1130EE005C0019B9BCF20E030E08BCF2A960FB644
S1130EF0F894DEBF0FBECDBFDF91CF911F910F914C
S1130F000895CF92DF92EF92FF920F931F93CF93A6
S1130F10DF93CDB7DEB72C970FB6F894DEBF0FBEC4
S1130F20CDBF8CE0ECE5F1E0DE01119601900D926D
S1130F308A95E1F70F2EF5E0CF2ED12CF02D7E010E
S1130F408DE0E80EF11C1CC0F801219131918F0154
S1130F503327220F331FC901880F991F880F991F48
S1130F60880F991F821B930B83549E4F20DF0E150D
S1130F701F0551F7F1E0CF1AD108C114D10421F0B3
S1130F808E010F5F1F4FE0CF2C960FB6F894DEBF93
S1130F900FBECDBFDF91CF911F910F91FF90EF90C6
S1130FA0DF90CF9008955058BB27AA270ED075C163
S1130FB066D130F06BD120F031F49F3F11F41EF470
S1130FC05BC10EF4E095E7FB51C1E92F77D180F3C3
S1130FD0BA17620773078407950718F071F49EF532
S1130FE08FC10EF4E0950B2EBA2FA02D0B01B90181
S1130FF090010C01CA01A0011124FF27591B99F08B
S1131000593F50F4503E68F11A16F040A22F232F96
S1131010342F4427585FF3CF469537952795A795E6
S1131020F0405395C9F77EF41F16BA0B620B730B8D
S1131030840BBAF09150A1F0FF0FBB1F661F771FFE
S1131040881FC2F70EC0BA0F621F731F841F48F4B3
S1131050879577956795B795F7959E3F08F0B3CF39
S11310609395880F08F09927EE0F97958795089523
S1131070D9D008F481E008950CD00FC107D140F015
S1131080FED030F021F45F3F19F0F0C0511139C1A6
S1131090F3C014D198F39923C9F35523B1F3951BE5
S11310A0550BBB27AA2762177307840738F09F5F85
S11310B05F4F220F331F441FAA1FA9F333D00E2EF4
S11310C03AF0E0E830D091505040E695001CCAF761
S11310D029D0FE2F27D0660F771F881FBB1F261726
S11310E037074807AB07B0E809F0BB0B802DBF01F9
S11310F0FF2793585F4F2AF09E3F510568F0B6C012
S113110000C15F3FECF3983EDCF3869577956795D5
S1131110B795F7959F5FC9F7880F911D96958795A9
S113112097F90895E1E0660F771F881FBB1F6217C8
S113113073078407BA0720F0621B730B840BBA0B86
S1131140EE1F88F7E095089504D06894B111D9C0D2
S11311500895BCD088F09F5790F0B92F9927B751C4
S1131160A0F0D1F0660F771F881F991F1AF0BA9567
S1131170C9F712C0B13081F0C3D0B1E00895C0C046
S1131180672F782F8827B85F39F0B93FCCF386955D
S113119077956795B395D9F73EF4909580957095BA
S11311A061957F4F8F4F9F4F0895E89409C097FB37
S11311B03EF490958095709561957F4F8F4F9F4F2A
S11311C09923A9F0F92F96E9BB279395F69587956E
S11311D077956795B795F111F8CFFAF4BB0F11F431
S11311E060FF1BC06F5F7F4F8F4F9F4F16C08823D8
S11311F011F096E911C0772321F09EE8872F762F0E
S113120005C0662371F096E8862F70E060E02AF04E
S11312109A95660F771F881FDAF7880F969587953A
S113122097F90895990F0008550FAA0BE0E8FEEF0F
S113123016161706E807F907C0F012161306E40796
S1131240F50798F0621B730B840B950B39F40A268F
S113125061F0232B242B252B21F408950A2609F46D
S1131260A140A6958FEF811D811D089597F99F6771
S113127080E870E060E008959FEF80EC089500241A
S11312800A941616170618060906089500240A94E7
S113129012161306140605060895092E0394000C6D
S11312A011F4882352F0BB0F40F4BF2B11F460FFFC
S11312B004C06F5F7F4F8F4F9F4F089557FD905825
S11312C0440F551F59F05F3F71F04795880F97FB06
S11312D0991F61F09F3F79F08795089512161306C0
S11312E01406551FF2CF4695F1DF08C016161706EF
S11312F01806991FF1CF8695710561050894089524
S1131300E894BB2766277727CB0197F908958ADFEE
S113131008F48FEF0895A29FB001B39FC001A39F6B
S1131320700D811D1124911DB29F700D811D11241A
S1131330911D0895CF93DF938230910510F482E0DC
S113134090E0E0911503F091160320E030E0A0E076
S1131350B0E0309739F14081518148175907B8F00E
S11313604817590771F482819381109729F01396D5
S11313709C938E9312972CC090931603809315031D
S113138027C02115310531F04217530718F0A90180
S1131390DB0101C0EF019A01BD01DF010280F3818D
S11313A0E02DD7CF21153105F9F0281B390B243056
S11313B0310580F48A819B816115710521F0FB015F
S11313C09383828304C09093160380931503FE01D4
S11313D0329644C0FE01E20FF31F81939193225091
S11313E03109398328833AC02091130330911403BF
S11313F0232B41F420910201309103013093140313
S1131400209313032091000130910101211531052E
S113141041F42DB73EB74091040150910501241BBE
S1131420350BE0911303F0911403E217F307A0F4D2
S11314302E1B3F0B2817390778F0AC014E5F5F4F26
S11314402417350748F04E0F5F1F50931403409341
S113145013038193919302C0E0E0F0E0CF01DF91A8
S1131460CF910895CF93DF93009709F487C0FC01CF
S1131470329713821282C0911503D09116032097DC
S113148081F420813181280F391F809113039091B9
S113149014038217930779F5F0931403E09313036D
S11314A06DC0DE0120E030E0AE17BF0750F41296A5
S11314B04D915C9113979D014115510509F1DA0194
S11314C0F3CFB383A28340815181840F951F8A1780
S11314D09B0771F48D919C911197840F951F02962F
S11314E09183808312968D919C9113979383828329
S11314F02115310529F4F0931603E09315033EC03A
S1131500D9011396FC93EE9312974D915D91A40F1C
S1131510B51FEA17FB0779F480819181840F951F29
S11315200296D90111969C938E938281938113968E
S11315309C938E931297E0E0F0E08A819B81009760
S113154019F0FE01EC01F9CFCE0102962881398110
S1131550820F931F20911303309114032817390726
S113156069F4309729F4109216031092150302C0FF
S113157013821282D0931403C0931303DF91CF918B
S11315800895DC01FB018C9190819D9381934150DE
S1131590510914161506BCF30895CF92DF92EF9209
S11315A0FF920F931F93CF93DF936C017B018A010A
S11315B0E901F9010995B80197FF0FC0C701FE01C0
S11315C0099597FD08C0B801C601FE01099597FD6C
S11315D014C0860112C0870110C0C701FE0109951D
S11315E01816190644F0B801C601FE01099597FFC3
S11315F004C0C60103C0C70101C0C801DF91CF9177
S11316001F910F91FF90EF90DF90CF9008952F924C
S11316103F924F925F926F927F928F929F92AF927E
S1131620BF92CF92DF92EF92FF920F931F93CF93CB
S1131630DF93CDB7DEB72C970FB6F894DEBF0FBE9D
S1131640CDBF8C016B015C874B8779015195419526
S1131650510958874F832B853C85200F311F3A83CE
S1131660298337E0C316D10468F589809A804B85B5
S11316705C85C49E5001C59EB00CD49EB00C112450
S1131680A00EB11E8A149B0408F062C13401061531
S1131690170598F463018B859C85C81AD90AB30190
S11316A0C601F7010995181619063CF44B855C85AB
S11316B0B601C30166DF3601EACF2B853C85820E75
S11316C0931EE0CFC601969587954B855C85849FD4
S11316D05001859FB00C949FB00C1124A00EB11E34
S11316E0C60101979E838D8397E0C916D10409F43E
S11316F048C0ED81FE81E49F3001E59F700CF49FAA
S1131700700C1124600E711EF9E2CF16D10490F111
S1131710C60123E0969587952A95E1F7849F4001B9
S1131720859F900C949F900C11241401220C331C5F
S1131730A801420D531DB801680D791D9701C80118
S11317402CDF2C01A501480D591D91948194910819
S11317509701B501C501880D991D1FDF5C01B30117
S1131760680D791D9701A301C3018219930915DF3F
S11317703C0101C028019701A301B501C2010DDF9D
S11317805C014B855C85B501C801FBDE89809A80CC
S11317904D815E818B859C85489F9001499F300DCA
S11317A0589F300D11243C832B833901600E711E28
S11317B01301540120E030E06A147B0408F43FC0B4
S11317C0B801C50129873A87F701099529853A8522
S11317D018161906A4F1892B81F44B855C85B50193
S11317E089819A81CEDE29813A814B855C85240FDB
S11317F0351F3A83298321E030E08B859C85A80E30
S1131800B91EDACFB801C30129873A87F7010995D0
S113181023014B855C85441A550A29853A8597FD31
S113182012C0892B59F44B855C85B101C301A9DE33
S11318302B853C85221A330A21E030E032016A14F8
S11318407B0400F70DC04B855C85B301C50199DEAF
S11318504B855C85A40EB51E320121E030E0ACCF8F
S1131860232B09F44BC04B805C804F815885441A6C
S1131870550A400E511E650129813A81C21AD30AC4
S1131880A901401B510BC416D5060CF4A60114166D
S113189015062CF4B501641B750BC80172DE4101F9
S11318A086189708A201421953098B859C85481B09
S11318B0590B8416950608F4A401141615062CF485
S11318C0B201641B750BC5015CDEEB85FC85EC1570
S11318D0FD0538F4C601BF0178D49701AF01C801F2
S11318E096DE2B853C852815390590F5820108196B
S11318F01909C401B90169D46B01ADCE8B859C85EE
S1131900C89E5001C99EB00CD89EB00C1124A00EE4
S1131910B11E8A149B04E0F434010615170598F4EB
S113192063018B859C85C81AD90AB301C601F701E6
S11319300995181619063CF44B855C85B601C3015C
S113194020DE3601EACF2B853C85820E931EE1CF43
S11319502C960FB6F894DEBF0FBECDBFDF91CF91AA
S11319601F910F91FF90EF90DF90CF90BF90AF90B9
S11319709F908F907F906F905F904F903F902F90AB
S113198008952F923F925F926F927F928F929F92CF
S1131990AF92BF92CF92DF92EF92FF920F931F9379
S11319A0CF93DF938B01EA016115710521F0DB010F
S11319B08C9311969C93209739F09E012250310903
S11319C02332310508F0F8C07C016701BFEFCB1A60
S11319D0DB0A5601F7016080862D90E003D1892B44
S11319E011F07601F2CFFDE26F120AC0570182E0D6
S11319F0A80EB11CD70111966C90772473940BC078
S1131A00BBE26B1207C05701E2E0AE0EB11CD70176
S1131A1011966C90712CCE018F7E892B89F4B0E3E2
S1131A206B1222C0F50180818F7D883541F561807C
S1131A30F2E0AF0EB11C872D8260782EC0E1D0E0B9
S1131A40C830D105F1F04CF4C230D10511F5C12CE8
S1131A50D12CE12CB0E4FB2E2EC0CA30D10531F0DC
S1131A60C031D10519F115C0209751F7CAE0D0E073
S1131A70ACECCA2EDC2CEC2CACE0FA2E1CC020976B
S1131A80F9F6C8E0D0E0C12CD12CE12CF0E1FF2E16
S1131A9012C060E070E080E090E89E01442737FDCA
S1131AA04095542FA6D369017A0105C0C12CD12CCD
S1131AB0E12CE8E0FE2EF50160E020E030E0A90131
S1131AC04E01AA2497FCA094BA2C1F0170ED572E46
S1131AD0560CA9E0A51570F48FEB860D8A3118F425
S1131AE099EC592E06C08FE9860D8A3128F589EACA
S1131AF0582E560C852D90E08C179D07ECF467FD4D
S1131B0017C0C216D306E406F50678F0C501B40181
S1131B104DD39B01AC01250D311D411D511D2130BB
S1131B2031054105B0E85B0710F06FEF01C061E0DB
S1131B303196D1016C90C9CF872D817001151105A3
S1131B4071F0662329F03197D801ED93FC9307C017
S1131B5071FE19C03297D801ED93FC9314C067FF4E
S1131B6012C0882329F020E030E040E050E804C0AF
S1131B702FEF3FEF4FEF5FE782E290E0909318037F
S1131B808093170316C0882341F0509540953095F3
S1131B9021953F4F4F4F5F4F0CC057FF0AC082E261
S1131BA090E090931803809317032FEF3FEF4FEFCC
S1131BB05FE7B901CA0104C060E070E080E090E032
S1131BC0DF91CF911F910F91FF90EF90DF90CF9015
S1131BD0BF90AF909F908F907F906F905F903F9059
S1131BE02F900895911139C2803219F0895085508F
S1131BF0D0F70895FB01DC018D910190801901104B
S1131C00D9F3990B08950F931F93CF93DF93CDB717
S1131C10DEB72E970FB6F894DEBF0FBECDBF0D8989
S1131C201E898F89988D26E02C831A83098397FF58
S1131C3002C080E090E801979E838D83AE01455EEB
S1131C405F4F698D7A8DCE01019619D04D815E81E9
S1131C5057FD0AC02F813885421753070CF49A01A7
S1131C60F801E20FF31F10822E960FB6F894DEBF30
S1131C700FBECDBFDF91CF911F910F9108952F9289
S1131C803F924F925F926F927F928F929F92AF9208
S1131C90BF92CF92DF92EF92FF920F931F93CF9355
S1131CA0DF93CDB7DEB72C970FB6F894DEBF0FBE27
S1131CB0CDBF7C016B018A01FC01178216828381EE
S1131CC081FFB0C1CE0101964C01F7019381F60169
S1131CD093FD859193FF81916F01882309F49EC13F
S1131CE0853239F493FD859193FF81916F0185329B
S1131CF021F4B70190E0CAD1E8CF512C312C20E077
S1131D002032A0F48B3269F030F4803259F08332FF
S1131D1069F420612CC08D3239F0803339F42160AC
S1131D2026C02260246023C0286021C027FD27C06C
S1131D3030ED380F3A3078F426FF06C0FAE05F9EA3
S1131D40300D1124532E13C08AE0389E300D112417
S1131D50332E20620CC08E3221F426FD5FC1206434
S1131D6006C08C3611F4206802C0883641F4F601AE
S1131D7093FD859193FF81916F018111C1CF982FBC
S1131D809F7D9554933028F40C5F1F4FFFE3F98334
S1131D900DC0833631F0833771F0833509F057C0B5
S1131DA021C0F801808189830E5F1F4F442443942E
S1131DB0512C540114C03801F2E06F0E711CF8016B
S1131DC0A080B18026FF03C0652D70E002C06FEFD4
S1131DD07FEFC5012C874FD12C0183012C852F77F0
S1131DE0222E16C03801F2E06F0E711CF801A0809B
S1131DF0B18026FF03C0652D70E002C06FEF7FEF56
S1131E00C5012C872DD12C012C852068222E83011D
S1131E1023FC19C0832D90E048165906A0F4B7019D
S1131E2080E290E033D13A94F5CFF50127FC859117
S1131E3027FE81915F01B70190E028D131103A94D7
S1131E40F1E04F1A51084114510479F7DEC0843689
S1131E5011F0893631F5F80127FF07C060817181DF
S1131E60828193810C5F1F4F08C060817181882734
S1131E7077FD8095982F0E5F1F4F2F76B22E97FF18
S1131E8009C090958095709561957F4F8F4F9F4FB6
S1131E902068B22E2AE030E0A4012AD1A82EA81886
S1131EA043C0853729F42F7EB22E2AE030E025C0C6
S1131EB0F22FF97FBF2E8F36C1F018F4883579F0F0
S1131EC0ADC0803719F0883721F0A8C02F2F2061CA
S1131ED0B22EB4FE0DC08B2D8460B82E09C024FF31
S1131EE00AC09F2F9660B92E06C028E030E005C0D6
S1131EF020E130E002C020E132E0F801B7FE07C083
S1131F0060817181828193810C5F1F4F06C0608163
S1131F10718180E090E00E5F1F4FA401E9D0A82EEC
S1131F20A818FB2DFF77BF2EB6FE0BC02B2D2E7FDE
S1131F30A51450F4B4FE0AC0B2FC08C02B2D2E7EAA
S1131F4005C07A2C2B2D03C07A2C01C0752C24FFDC
S1131F500DC0FE01EA0DF11D8081803311F4297E4C
S1131F6009C022FF06C07394739404C0822F86783C
S1131F7009F0739423FD12C020FF06C05A2C731479
S1131F8018F4530C5718732C731460F4B70180E2DF
S1131F9090E02C877BD073942C85F6CF731410F4C7
S1131FA0371801C0312C24FF11C0B70180E390E041
S1131FB02C876CD02C8522FF16C021FF03C088E536
S1131FC090E002C088E790E0B7010CC0822F8678C9
S1131FD051F021FD02C080E201C08BE227FD8DE2B9
S1131FE0B70190E053D0A51430F4B70180E390E03A
S1131FF04DD05A94F8CFAA94F401EA0DF11D8081D2
S1132000B70190E043D0A110F6CF332009F45DCEA0
S1132010B70180E290E03AD03A94F7CFF701868195
S1132020978102C08FEF9FEF2C960FB6F894DEBF16
S11320300FBECDBFDF91CF911F910F91FF90EF9015
S1132040DF90CF90BF90AF909F908F907F906F90D4
S11320505F904F903F902F90089599278827089577
S1132060FC010590615070400110D8F7809590955F
S11320708E0F9F1F0895FC01615070400190011064
S1132080D8F7809590958E0F9F1F08950F931F93F7
S1132090CF93DF93182F092FEB018B8181FD03C0B0
S11320A08FEF9FEF20C082FF10C04E815F812C8193
S11320B03D81421753077CF4E881F9819F012F5F2A
S11320C03F4F39832883108306C0E885F985812F23
S11320D00995892B29F72E813F812F5F3F4F3F833D
S11320E02E83812F902FDF91CF911F910F9108950F
S11320F0FA01AA27283051F1203181F1E8946F9335
S11321006E7F6E5F7F4F8F4F9F4FAF4FB1E03ED0DA
S1132110B4E03CD0670F781F891F9A1FA11D680F78
S1132120791F8A1F911DA11D6A0F711D811D911DAB
S1132130A11D20D009F468943F912AE0269F112420
S11321403019305D3193DEF6CF010895462F477084
S1132150405D4193B3E00FD0C9F7F6CF462F4F70DF
S1132160405D4A3318F0495D31FD4052419302D03D
S1132170A9F7EACFB4E0A6959795879577956795E3
S1132180BA95C9F700976105710508959B01AC01E3
S11321900A2E06945795479537952795BA95C9F70A
S11321A0620F731F841F951FA01D0895DB018F9379
S11321B09F9341D0BF91AF91A29F800D911DA39F8A
S11321C0900DB29F900D11240895AA1BBB1B51E1E1
S11321D007C0AA1FBB1FA617B70710F0A61BB70B93
S11321E0881F991F5A95A9F780959095BC01CD0138
S11321F00895A1E21A2EAA1BBB1BFD010DC0AA1F44
S1132200BB1FEE1FFF1FA217B307E407F50720F05B
S1132210A21BB30BE40BF50B661F771F881F991FD6
S11322201A9469F760957095809590959B01AC011F
S1132230BD01CF0108956FD8A59F900DB49F900D57
S1112240A49F800D911D11240895F894FFCFE2
S113224E00001903200093018C0100000200040019
S113225E010003000500040100000000000000005E
S113226E0000000008010000000000000000000053
S113227E00000C010000000000000000000000003F
S113228E1001000000000000000000000000140116
S113229E000000000000000000000000000002002A
S11322AE0400010003000500424F5353450044311E
S11322BE3A200044323A200044333A200044343A5F
S11322CE200044353A200044363A2000726F74617F
S11322DE74650064697374616E636500616363653C
S11322EE70740066616C73650074727565002564A4
S10F22FE0025750064656E6965640000CD
S9030000FC
